{
  "transactions": [
    {
      "hash": "0xc478135c6342ee721681a929c02c5b3fdd221b2a0c92fba5ed5c6c9e24fb48b7",
      "transactionType": "CREATE",
      "contractName": "InstitutionalAuditHistory",
      "contractAddress": "0xe8e0e4f795a1a285395f6f8d5ea80adef8c076f1",
      "function": null,
      "arguments": null,
      "transaction": {
        "from": "0x6bdf6d887038ab97957c2f57d05edd0eb338589a",
        "gas": "0x86a7f",
        "value": "0x0",
        "input": "0x6080604052348015600e575f5ffd5b505f80546001600160a01b0319163317905561064c8061002d5f395ff3fe608060405234801561000f575f5ffd5b5060043610610060575f3560e01c8063189f158d146100645780632801e43a146100ab57806336649f6a146100dd578063452a9320146100f2578063961bee821461011c578063b593bb021461012f575b5f5ffd5b6100776100723660046104f1565b610142565b6040805196875260208701959095529385019290925260608401526080830152151560a082015260c0015b60405180910390f35b6100cd6100b93660046104f1565b60026020525f908152604090205460ff1681565b60405190151581526020016100a2565b6100f06100eb366004610511565b610245565b005b5f54610104906001600160a01b031681565b6040516001600160a01b0390911681526020016100a2565b6100f061012a36600461054a565b610337565b6100f061013d366004610511565b61043a565b6001600160a01b0381165f908152600160208181526040808420815160c0810183528154815293810154928401929092526002820154908301526003810154606083018190526004820154608084015260059091015460ff16151560a083015282918291829182918291906102155760405162461bcd60e51b815260206004820152602e60248201527f4572726f723a204e6f20686973746f72792065786973747320666f722074686960448201526d399034b739ba34ba3aba34b7b71760911b60648201526084015b60405180910390fd5b8051602082015160408301516060840151608085015160a090950151939c929b5090995097509195509350915050565b5f546001600160a01b031633146102d85760405162461bcd60e51b815260206004820152604b60248201527f4572726f723a204163636573732064656e6965642e204f6e6c7920746865205360448201527f6f7665726569676e20477561726469616e2063616e20616c74657220636f6e6660648201526a34b3bab930ba34b7b7399760a91b608482015260a40161020c565b6001600160a01b0382165f81815260026020908152604091829020805460ff191685151590811790915591519182527f9a930a25698f6b5bbca85e080f7fa61e9f190b339cc1b8e151c0a4fb404b124591015b60405180910390a25050565b5f546001600160a01b031633148061035d5750335f9081526002602052604090205460ff165b6103795760405162461bcd60e51b815260040161020c90610588565b6001600160a01b0385165f90815260016020526040812060038101549091036103a3574260038201555b84815f015f8282546103b591906105f1565b9250508190555083816001015f8282546103cf91906105f1565b9250508190555082816002015f8282546103e991906105f1565b90915550504260048201556040518281526001600160a01b038716907f487362a4d80125bc023d76d80551439778c667aeefd5894dc810de019125e9859060200160405180910390a2505050505050565b5f546001600160a01b03163314806104605750335f9081526002602052604090205460ff165b61047c5760405162461bcd60e51b815260040161020c90610588565b6001600160a01b0382165f81815260016020908152604091829020600501805460ff191685151590811790915591519182527f9e9a8c8773394fc21413a8e12829f2841008f858a896fe748b28c67e7adcaf71910161032b565b80356001600160a01b03811681146104ec575f5ffd5b919050565b5f60208284031215610501575f5ffd5b61050a826104d6565b9392505050565b5f5f60408385031215610522575f5ffd5b61052b836104d6565b91506020830135801515811461053f575f5ffd5b809150509250929050565b5f5f5f5f5f60a0868803121561055e575f5ffd5b610567866104d6565b97602087013597506040870135966060810135965060800135945092505050565b60208082526043908201527f4572726f723a204163636573732064656e6965642e2053656e646572206e6f7460408201527f20617574686f72697a656420746f206c6f6720686973746f726963616c2064616060820152623a309760e91b608082015260a00190565b8082018082111561061057634e487b7160e01b5f52601160045260245ffd5b9291505056fea26469706673582212204e20b4bae2e91c017172682f6ab9bf067c4526325cc77bd387c0c6cd9801cbea64736f6c634300081e0033",
        "nonce": "0x3",
        "chainId": "0xaa36a7"
      },
      "additionalContracts": [],
      "isFixedGasLimit": false
    },
    {
      "hash": "0xc6fbba886d58d62f47713634df57594b3be5fb853e67455e5ff3ee71a9968161",
      "transactionType": "CREATE",
      "contractName": "FinancialIndexReconstitutionOracle",
      "contractAddress": "0xd0ba898e929d319cf9b287fcb2710b84de9582cc",
      "function": null,
      "arguments": null,
      "transaction": {
        "from": "0x6bdf6d887038ab97957c2f57d05edd0eb338589a",
        "gas": "0x10d69c",
        "value": "0x0",
        "input": "0x6080604052348015600e575f5ffd5b505f80546001600160a01b03191633179055610df88061002d5f395ff3fe608060405234801561000f575f5ffd5b50600436106100a6575f3560e01c8063ae39cc871161006e578063ae39cc871461013d578063b3c4bf391461014f578063ce4b5bbe14610162578063d0cf985e1461016c578063eb5bb1921461019e578063fe289dfe146101c8575f5ffd5b8063114517df146100aa5780631fdf11fb146100d05780632ff910ce146100e557806392f8eb94146100ee5780639f7337f814610112575b5f5ffd5b6100bd6100b83660046108c7565b6101db565b6040519081526020015b60405180910390f35b6100e36100de3660046109fe565b6102ec565b005b6100bd60025481565b6101016100fc366004610ad1565b6106f7565b6040516100c7959493929190610b16565b600154610125906001600160a01b031681565b6040516001600160a01b0390911681526020016100c7565b5f54610125906001600160a01b031681565b6100e361015d366004610b4d565b6107b0565b6100bd620f424081565b61018e61017a366004610b86565b60056020525f908152604090205460ff1681565b60405190151581526020016100c7565b6100bd6101ac366004610ba6565b600460209081525f928352604080842090915290825290205481565b6100e36101d6366004610b86565b610837565b5f80546001600160a01b0316331461020e5760405162461bcd60e51b815260040161020590610bd0565b60405180910390fd5b60028054905f61021d83610c2c565b90915550506040805160a08101825260025480825260208083018681525f84860181905242606086015260808501819052928352600390915292902081518155915190919060018201906102719082610cc8565b5060408201518160020155606082015181600301556080820151816004015f6101000a81548160ff0219169083151502179055509050506002547fae8630ae4c87656d64d78568133f3414a69b51a44a05a4e2a0e584e2e59a2ead836040516102da9190610d83565b60405180910390a2506002545b919050565b335f9081526005602052604090205460ff168061031257505f546001600160a01b031633145b61036a5760405162461bcd60e51b815260206004820152602360248201527f4572726f723a20556e617574686f72697a656420636f6d6d6974746565206e6f60448201526232329760e91b6064820152608401610205565b5f848152600360205260409020600481015460ff16156103cc5760405162461bcd60e51b815260206004820152601e60248201527f4572726f723a20496e6465782066616d696c79206973206c6f636b65642e00006044820152606401610205565b82518451146104285760405162461bcd60e51b815260206004820152602260248201527f4572726f723a204d61747269782064696d656e73696f6e73206d69736d617463604482015261341760f11b6064820152608401610205565b5f8451116104885760405162461bcd60e51b815260206004820152602760248201527f4572726f723a20456d70747920696e64657820636f6e7374697475656e74207060448201526630bcb637b0b21760c91b6064820152608401610205565b5f805b85518110156105a6575f6001600160a01b03168682815181106104b0576104b0610d95565b60200260200101516001600160a01b03160361050e5760405162461bcd60e51b815260206004820152601d60248201527f4572726f723a20496e76616c696420617373657420706f696e7465722e0000006044820152606401610205565b84818151811061052057610520610d95565b602002602001015160045f8981526020019081526020015f205f88848151811061054c5761054c610d95565b60200260200101516001600160a01b03166001600160a01b031681526020019081526020015f208190555084818151811061058957610589610d95565b60200260200101518261059c9190610da9565b915060010161048b565b50620f42408114610621576040805162461bcd60e51b81526020600482015260248101919091527f4572726f723a204d69736d61746368206964656e7469666965642e205765696760448201527f6874732073756d206d75737420657175616c2065786163746c7920313030252e6064820152608401610205565b426003830181905585516002840155604080519182526020820185905287917f493f6da053caa8e9bb5622315d48d756cff22e1400ea42a143480c826116813b910160405180910390a26001546001600160a01b0316156106ef5760018054604051634b0df74160e11b81523360048201525f6024820181905260448201939093526064810192909252608482018590526001600160a01b03169063961bee829060a4015f604051808303815f87803b1580156106dc575f5ffd5b505af19250505080156106ed575060015b505b505050505050565b60036020525f90815260409020805460018201805491929161071890610c44565b80601f016020809104026020016040519081016040528092919081815260200182805461074490610c44565b801561078f5780601f106107665761010080835404028352916020019161078f565b820191905f5260205f20905b81548152906001019060200180831161077257829003601f168201915b50505050600283015460038401546004909401549293909290915060ff1685565b5f546001600160a01b031633146107d95760405162461bcd60e51b815260040161020590610bd0565b6001600160a01b0382165f81815260056020908152604091829020805460ff191685151590811790915591519182527f4e833ceb587212bc2c72f490b67516cfdc02c613ea4f899e8e4f1e8a59e04278910160405180910390a25050565b5f546001600160a01b031633146108605760405162461bcd60e51b815260040161020590610bd0565b600180546001600160a01b0319166001600160a01b0392909216919091179055565b634e487b7160e01b5f52604160045260245ffd5b604051601f8201601f1916810167ffffffffffffffff811182821017156108bf576108bf610882565b604052919050565b5f602082840312156108d7575f5ffd5b813567ffffffffffffffff8111156108ed575f5ffd5b8201601f810184136108fd575f5ffd5b803567ffffffffffffffff81111561091757610917610882565b61092a601f8201601f1916602001610896565b81815285602083850101111561093e575f5ffd5b816020840160208301375f91810160200191909152949350505050565b5f67ffffffffffffffff82111561097457610974610882565b5060051b60200190565b80356001600160a01b03811681146102e7575f5ffd5b5f82601f8301126109a3575f5ffd5b81356109b66109b18261095b565b610896565b8082825260208201915060208360051b8601019250858311156109d7575f5ffd5b602085015b838110156109f45780358352602092830192016109dc565b5095945050505050565b5f5f5f5f60808587031215610a11575f5ffd5b84359350602085013567ffffffffffffffff811115610a2e575f5ffd5b8501601f81018713610a3e575f5ffd5b8035610a4c6109b18261095b565b8082825260208201915060208360051b850101925089831115610a6d575f5ffd5b6020840193505b82841015610a9657610a858461097e565b825260209384019390910190610a74565b9550505050604085013567ffffffffffffffff811115610ab4575f5ffd5b610ac087828801610994565b949793965093946060013593505050565b5f60208284031215610ae1575f5ffd5b5035919050565b5f81518084528060208401602086015e5f602082860101526020601f19601f83011685010191505092915050565b85815260a060208201525f610b2e60a0830187610ae8565b6040830195909552506060810192909252151560809091015292915050565b5f5f60408385031215610b5e575f5ffd5b610b678361097e565b915060208301358015158114610b7b575f5ffd5b809150509250929050565b5f60208284031215610b96575f5ffd5b610b9f8261097e565b9392505050565b5f5f60408385031215610bb7575f5ffd5b82359150610bc76020840161097e565b90509250929050565b60208082526028908201527f4572726f723a204f6e6c7920536f7665726569676e20436f6e74726163746f726040820152671030b1b1b2b9b99760c11b606082015260800190565b634e487b7160e01b5f52601160045260245ffd5b5f60018201610c3d57610c3d610c18565b5060010190565b600181811c90821680610c5857607f821691505b602082108103610c7657634e487b7160e01b5f52602260045260245ffd5b50919050565b601f821115610cc357805f5260205f20601f840160051c81016020851015610ca15750805b601f840160051c820191505b81811015610cc0575f8155600101610cad565b50505b505050565b815167ffffffffffffffff811115610ce257610ce2610882565b610cf681610cf08454610c44565b84610c7c565b6020601f821160018114610d28575f8315610d115750848201515b5f19600385901b1c1916600184901b178455610cc0565b5f84815260208120601f198516915b82811015610d575787850151825560209485019460019092019101610d37565b5084821015610d7457868401515f19600387901b60f8161c191681555b50505050600190811b01905550565b602081525f610b9f6020830184610ae8565b634e487b7160e01b5f52603260045260245ffd5b80820180821115610dbc57610dbc610c18565b9291505056fea2646970667358221220352619910864307467d0318c669e6e34d3a9508593a34a0e6f33197bae1a99a264736f6c634300081e0033",
        "nonce": "0x4",
        "chainId": "0xaa36a7"
      },
      "additionalContracts": [],
      "isFixedGasLimit": false
    },
    {
      "hash": "0xd39cc221ac704e4963ada31f001f3de84ca8dc3ff09fdcadf469a44cd206d4cd",
      "transactionType": "CREATE",
      "contractName": "WipoContentExpertDetermination",
      "contractAddress": "0xa677ae0b7a52023b5f292ce04f6344cbc4a35dbf",
      "function": null,
      "arguments": null,
      "transaction": {
        "from": "0x6bdf6d887038ab97957c2f57d05edd0eb338589a",
        "gas": "0xbb6ee",
        "value": "0x0",
        "input": "0x6080604052348015600e575f5ffd5b505f80546001600160a01b0319163317905561094e8061002d5f395ff3fe608060405234801561000f575f5ffd5b5060043610610090575f3560e01c80639f7337f8116100635780639f7337f81461016a578063ae39cc8714610195578063c5e4ccc4146101a7578063cb78edbd146101b0578063fe289dfe146101c3575f5ffd5b80630855afda146100945780630a784a56146100cb578063548651d5146100ec578063564a565d14610101575b5f5ffd5b6100b66100a2366004610760565b60046020525f908152604090205460ff1681565b60405190151581526020015b60405180910390f35b6100de6100d9366004610780565b6101d6565b6040519081526020016100c2565b6100ff6100fa3660046107c8565b6103ce565b005b61015861010f3660046107fb565b600360208190525f91825260409091208054600182015460028301549383015460049093015491936001600160a01b0391821693909291811691600160a01b90910460ff169086565b6040516100c296959493929190610826565b60015461017d906001600160a01b031681565b6040516001600160a01b0390911681526020016100c2565b5f5461017d906001600160a01b031681565b6100de60025481565b6100ff6101be36600461087b565b610673565b6100ff6101d1366004610760565b6106fa565b5f80546001600160a01b031633146102095760405162461bcd60e51b8152600401610200906108ac565b60405180910390fd5b6001600160a01b0382165f9081526004602052604090205460ff166102965760405162461bcd60e51b815260206004820152603860248201527f4572726f723a20416c6c6f63617465642074617267657420657870657274206860448201527f6f6c6473206e6f206c6567616c20636c656172616e63652e00000000000000006064820152608401610200565b60028054905f6102a5836108f4565b90915550506040805160c08101825260025481526001600160a01b0380871660208301529181018590529083166060820152608081015f81525f6020918201819052600280548252600380845260409283902085518155938501516001850180546001600160a01b03199081166001600160a01b03938416179091559386015192850192909255606085015184820180549485169190931690811783556080860151936001600160a81b0319161790600160a01b90849081111561036b5761036b610812565b021790555060a08201518160040155905050836001600160a01b03166002547fae201045d5ef9b33dbd6ba32e6d999bd9e91c1e2ea450726cfb834d0e7676557856040516103bb91815260200190565b60405180910390a3506002549392505050565b335f90815260046020526040902054839060ff1661043d5760405162461bcd60e51b815260206004820152602660248201527f4572726f723a204e6f6465206973206e6f7420612063657274696669656420656044820152653c3832b93a1760d11b6064820152608401610200565b5f81815260036020819052604090912001546001600160a01b031633146104b55760405162461bcd60e51b815260206004820152602660248201527f4572726f723a20556e617574686f72697a65642065787065727420616c6c6f6360448201526530ba34b7b71760d11b6064820152608401610200565b5f84815260036020526040812090600382810154600160a01b900460ff16908111156104e3576104e3610812565b146105485760405162461bcd60e51b815260206004820152602f60248201527f4572726f723a205461726765742064697370757465206c6966656379636c652060448201526e30b63932b0b23c9031b637b9b2b21760891b6064820152608401610200565b83610554576002610557565b60015b8160030160146101000a81548160ff0219169083600381111561057c5761057c610812565b021790555060048101839055600380820154600160a01b900460ff16908111156105a8576105a8610812565b857f5e1a1911e70e6070e19dcdea128426643f144adeba0ac122c1a8b63d3ad2df7d856040516105da91815260200190565b60405180910390a36001546001600160a01b03161561066c576001805482820154604051634b0df74160e11b81526001600160a01b0391821660048201525f602482018190526044820194909452606481019390935260848301869052169063961bee829060a4015f604051808303815f87803b158015610659575f5ffd5b505af192505050801561066a575060015b505b5050505050565b5f546001600160a01b0316331461069c5760405162461bcd60e51b8152600401610200906108ac565b6001600160a01b0382165f81815260046020908152604091829020805460ff191685151590811790915591519182527fb191c67446000b1fd7e213065673355718ad3751367e396fc6425ba1d8d82410910160405180910390a25050565b5f546001600160a01b031633146107235760405162461bcd60e51b8152600401610200906108ac565b600180546001600160a01b0319166001600160a01b0392909216919091179055565b80356001600160a01b038116811461075b575f5ffd5b919050565b5f60208284031215610770575f5ffd5b61077982610745565b9392505050565b5f5f5f60608486031215610792575f5ffd5b61079b84610745565b9250602084013591506107b060408501610745565b90509250925092565b8035801515811461075b575f5ffd5b5f5f5f606084860312156107da575f5ffd5b833592506107ea602085016107b9565b929592945050506040919091013590565b5f6020828403121561080b575f5ffd5b5035919050565b634e487b7160e01b5f52602160045260245ffd5b8681526001600160a01b038681166020830152604082018690528416606082015260c081016004841061086757634e487b7160e01b5f52602160045260245ffd5b608082019390935260a00152949350505050565b5f5f6040838503121561088c575f5ffd5b61089583610745565b91506108a3602084016107b9565b90509250929050565b60208082526028908201527f4572726f723a204f6e6c7920536f7665726569676e20436f6e74726163746f726040820152671030b1b1b2b9b99760c11b606082015260800190565b5f6001820161091157634e487b7160e01b5f52601160045260245ffd5b506001019056fea2646970667358221220bd0102ede4bcdd33b747aefde020d8703822967ba3235c3b5a11458e6ba3127064736f6c634300081e0033",
        "nonce": "0x5",
        "chainId": "0xaa36a7"
      },
      "additionalContracts": [],
      "isFixedGasLimit": false
    },
    {
      "hash": "0x27607b7b7ea4d3be177165799cffa7d71fd1ee92f5a8b1e0584a23312695cf46",
      "transactionType": "CREATE",
      "contractName": "QualityAssuranceSelfAssessment",
      "contractAddress": "0x7e0c8d03218daaa408c16c3e580dad36fc0fc4af",
      "function": null,
      "arguments": null,
      "transaction": {
        "from": "0x6bdf6d887038ab97957c2f57d05edd0eb338589a",
        "gas": "0xc53a9",
        "value": "0x0",
        "input": "0x6080604052348015600e575f5ffd5b505f80546001600160a01b031916331790556109dc8061002d5f395ff3fe608060405234801561000f575f5ffd5b5060043610610085575f3560e01c8063b27fd25411610058578063b27fd254146100f5578063b60e73db14610127578063deb6ad651461014c578063fe289dfe14610161575f5ffd5b8063817c0893146100895780639f7337f8146100af578063a17cc1f2146100da578063ae39cc87146100e3575b5f5ffd5b61009c61009736600461066f565b610174565b6040519081526020015b60405180910390f35b6001546100c2906001600160a01b031681565b6040516001600160a01b0390911681526020016100a6565b61009c60025481565b5f546100c2906001600160a01b031681565b610117610103366004610724565b60046020525f908152604090205460ff1681565b60405190151581526020016100a6565b61013a610135366004610751565b610361565b6040516100a696959493929190610768565b61015f61015a3660046107ca565b61042a565b005b61015f61016f366004610724565b610610565b335f9081526004602052604081205460ff16156101fe5760405162461bcd60e51b815260206004820152603b60248201527f4572726f723a204272616e6368206e6f64652069732062616e6e65642064756560448201527f20746f2070726576696f7573206e6f6e636f6e666f726d6974792e000000000060648201526084015b60405180910390fd5b816102605760405162461bcd60e51b815260206004820152602c60248201527f4572726f723a20496e76616c696420656d7074792065766964656e636520747260448201526b30b1b5b4b733903430b9b41760a11b60648201526084016101f5565b60028054905f61026f836107fc565b90915550506040805160c08101825260028054808352336020808501918252848601898152606086018990524260808701525f60a087018190529384526003909152949091208351815590516001820180546001600160a01b0319166001600160a01b039092169190911790559251919291908201906102ef90826108a3565b50606082015160038201556080820151600482015560a0909101516005909101805460ff19169115159190911790556002546040518381523391907f7c048bd99b30edcdd8f772f44219d1ade632c389f9a1218f3cf34ffeebbb999a9060200160405180910390a35060025492915050565b60036020525f908152604090208054600182015460028301805492936001600160a01b039092169261039290610820565b80601f01602080910402602001604051908101604052809291908181526020018280546103be90610820565b80156104095780601f106103e057610100808354040283529160200191610409565b820191905f5260205f20905b8154815290600101906020018083116103ec57829003601f168201915b50505050600383015460048401546005909401549293909290915060ff1686565b5f546001600160a01b031633146104535760405162461bcd60e51b81526004016101f59061095e565b5f82815260036020526040812080549091036104c15760405162461bcd60e51b815260206004820152602760248201527f4572726f723a205461726765742053415220656e74727920646f6573206e6f746044820152661032bc34b9ba1760c91b60648201526084016101f5565b60058101805460ff1916831515179055816104fe576001818101546001600160a01b03165f908152600460205260409020805460ff191690911790555b827f6467a89a5a427258fb86a7d8199135f766ab402c257041f731f27f724b503bfa83604051610532911515815260200190565b60405180910390a26001546001600160a01b03161561060b5760018054908201546001600160a01b039182169163961bee8291165f85610572575f610575565b60015b86610581576001610583565b5f5b6040516001600160e01b031960e087901b1681526001600160a01b039094166004850152602484019290925260ff90811660448401521660648201527514d05497d15590531550551253d397d4d1551513115160521b608482015260a4015f604051808303815f87803b1580156105f8575f5ffd5b505af1925050508015610609575060015b505b505050565b5f546001600160a01b031633146106395760405162461bcd60e51b81526004016101f59061095e565b600180546001600160a01b0319166001600160a01b0392909216919091179055565b634e487b7160e01b5f52604160045260245ffd5b5f5f60408385031215610680575f5ffd5b823567ffffffffffffffff811115610696575f5ffd5b8301601f810185136106a6575f5ffd5b803567ffffffffffffffff8111156106c0576106c061065b565b604051601f8201601f19908116603f0116810167ffffffffffffffff811182821017156106ef576106ef61065b565b604052818152828201602001871015610706575f5ffd5b816020840160208301375f6020928201830152969401359450505050565b5f60208284031215610734575f5ffd5b81356001600160a01b038116811461074a575f5ffd5b9392505050565b5f60208284031215610761575f5ffd5b5035919050565b86815260018060a01b038616602082015260c060408201525f85518060c0840152806020880160e085015e5f60e0828501015260e0601f19601f83011684010191505084606083015283608083015282151560a0830152979650505050505050565b5f5f604083850312156107db575f5ffd5b82359150602083013580151581146107f1575f5ffd5b809150509250929050565b5f6001820161081957634e487b7160e01b5f52601160045260245ffd5b5060010190565b600181811c9082168061083457607f821691505b60208210810361085257634e487b7160e01b5f52602260045260245ffd5b50919050565b601f82111561060b57805f5260205f20601f840160051c8101602085101561087d5750805b601f840160051c820191505b8181101561089c575f8155600101610889565b5050505050565b815167ffffffffffffffff8111156108bd576108bd61065b565b6108d1816108cb8454610820565b84610858565b6020601f821160018114610903575f83156108ec5750848201515b5f19600385901b1c1916600184901b17845561089c565b5f84815260208120601f198516915b828110156109325787850151825560209485019460019092019101610912565b508482101561094f57868401515f19600387901b60f8161c191681555b50505050600190811b01905550565b60208082526028908201527f4572726f723a204f6e6c7920536f7665726569676e20436f6e74726163746f726040820152671030b1b1b2b9b99760c11b60608201526080019056fea2646970667358221220ea2d68fc28e050ef392b68e9a579adba495a380ce8059d7504b78e92dc60212464736f6c634300081e0033",
        "nonce": "0x6",
        "chainId": "0xaa36a7"
      },
      "additionalContracts": [],
      "isFixedGasLimit": false
    },
    {
      "hash": "0x93c6d7a63dbc0b3118622a9f5c45021329b05f30f4a52551a6e34e130e79eeb9",
      "transactionType": "CREATE",
      "contractName": "FoundationGovernanceLedger",
      "contractAddress": "0x55978b20a4915069fc9fb6f6304a1a2922650a5e",
      "function": null,
      "arguments": null,
      "transaction": {
        "from": "0x6bdf6d887038ab97957c2f57d05edd0eb338589a",
        "gas": "0xc8dbf",
        "value": "0x0",
        "input": "0x6080604052348015600e575f5ffd5b505f80546001600160a01b03191633179055610a118061002d5f395ff3fe608060405234801561000f575f5ffd5b5060043610610085575f3560e01c8063baf0d05b11610058578063baf0d05b1461011f578063bb4ee51314610134578063e4c58bdd14610158578063fe289dfe1461016b575f5ffd5b80630ef25a42146100895780637b98de40146100a55780639f7337f8146100e2578063ae39cc871461010d575b5f5ffd5b61009260025481565b6040519081526020015b60405180910390f35b6100d26100b3366004610644565b600460209081525f928352604080842090915290825290205460ff1681565b604051901515815260200161009c565b6001546100f5906001600160a01b031681565b6040516001600160a01b03909116815260200161009c565b5f546100f5906001600160a01b031681565b61013261012d366004610680565b61017e565b005b610147610142366004610753565b610302565b60405161009c959493929190610773565b6101326101663660046107ce565b6103c5565b610132610179366004610753565b6105de565b5f546001600160a01b031633146101b05760405162461bcd60e51b81526004016101a79061080f565b60405180910390fd5b6001600160a01b0384166102065760405162461bcd60e51b815260206004820152601c60248201527f4572726f723a20496e76616c6964206e6f646520706f696e7465722e0000000060448201526064016101a7565b6040805160a0810182526001600160a01b038681168083526020808401888152848601889052606085018790526001608086018190525f938452600390925294909120835181546001600160a01b03191693169290921782559251919290919082019061027390826108db565b506040820151600282810191909155606083015160038301556080909201516004909101805460ff19169115159190911790558054905f6102b3836109aa565b909155505060408051838152602081018390526001600160a01b038616917fddc184addb9794ac7c4e1893ce8853766f53ec5c0d3a560585569ec4f0e8703b910160405180910390a250505050565b60036020525f9081526040902080546001820180546001600160a01b03909216929161032d90610857565b80601f016020809104026020016040519081016040528092919081815260200182805461035990610857565b80156103a45780601f1061037b576101008083540402835291602001916103a4565b820191905f5260205f20905b81548152906001019060200180831161038757829003601f168201915b50505050600283015460038401546004909401549293909290915060ff1685565b5f546001600160a01b031633146103ee5760405162461bcd60e51b81526004016101a79061080f565b6001600160a01b0383165f908152600360205260409020600481015460ff166104595760405162461bcd60e51b815260206004820152601f60248201527f4572726f723a204d656d6265722070726f66696c6520696e6163746976652e0060448201526064016101a7565b816105505760048101805460ff191690556040518381526001600160a01b038516907fc977fa5972a1ddaa7694ad3eb531cb207997dcda1c1be515a789cc6b27de70b89060200160405180910390a26001546001600160a01b03161561054b5760018054604051634b0df74160e11b81526001600160a01b0387811660048301525f60248301819052604483015260648201939093527f464f554e444154494f4e5f474f565f434f4e464c4943545f5741524e00000000608482015291169063961bee829060a4015f604051808303815f87803b158015610538575f5ffd5b505af1925050508015610549575060015b505b6105d8565b6001600160a01b0384165f9081526004602090815260408083208684529091528120805460ff191660011790556003820154600283015461059191906109c2565b9050846001600160a01b03167f3b7855cfe3a69321271c3e682da44c2356a98abff7abe42a5d07770a4dff1797826040516105ce91815260200190565b60405180910390a2505b50505050565b5f546001600160a01b031633146106075760405162461bcd60e51b81526004016101a79061080f565b600180546001600160a01b0319166001600160a01b0392909216919091179055565b80356001600160a01b038116811461063f575f5ffd5b919050565b5f5f60408385031215610655575f5ffd5b61065e83610629565b946020939093013593505050565b634e487b7160e01b5f52604160045260245ffd5b5f5f5f5f60808587031215610693575f5ffd5b61069c85610629565b9350602085013567ffffffffffffffff8111156106b7575f5ffd5b8501601f810187136106c7575f5ffd5b803567ffffffffffffffff8111156106e1576106e161066c565b604051601f8201601f19908116603f0116810167ffffffffffffffff811182821017156107105761071061066c565b604052818152828201602001891015610727575f5ffd5b816020840160208301375f91810160200191909152949794965050505060408301359260600135919050565b5f60208284031215610763575f5ffd5b61076c82610629565b9392505050565b60018060a01b038616815260a060208201525f85518060a0840152806020880160c085015e5f60c0828501015260c0601f19601f83011684010191505084604083015283606083015282151560808301529695505050505050565b5f5f5f606084860312156107e0575f5ffd5b6107e984610629565b92506020840135915060408401358015158114610804575f5ffd5b809150509250925092565b60208082526028908201527f4572726f723a204f6e6c7920536f7665726569676e20436f6e74726163746f726040820152671030b1b1b2b9b99760c11b606082015260800190565b600181811c9082168061086b57607f821691505b60208210810361088957634e487b7160e01b5f52602260045260245ffd5b50919050565b601f8211156108d657805f5260205f20601f840160051c810160208510156108b45750805b601f840160051c820191505b818110156108d3575f81556001016108c0565b50505b505050565b815167ffffffffffffffff8111156108f5576108f561066c565b610909816109038454610857565b8461088f565b6020601f82116001811461093b575f83156109245750848201515b5f19600385901b1c1916600184901b1784556108d3565b5f84815260208120601f198516915b8281101561096a578785015182556020948501946001909201910161094a565b508482101561098757868401515f19600387901b60f8161c191681555b50505050600190811b01905550565b634e487b7160e01b5f52601160045260245ffd5b5f600182016109bb576109bb610996565b5060010190565b808201808211156109d5576109d5610996565b9291505056fea264697066735822122012ddc151900fd3978816ee2bd36413467c032f1b7bef7d2bb7b24e87015db0cd64736f6c634300081e0033",
        "nonce": "0x7",
        "chainId": "0xaa36a7"
      },
      "additionalContracts": [],
      "isFixedGasLimit": false
    },
    {
      "hash": "0x1fcf4362ae2337ef56d93ba1194342ede9847d3b3a6e5affa78f481865871104",
      "transactionType": "CREATE",
      "contractName": "AcademicAccreditationSAROracle",
      "contractAddress": "0xe23fc6c514b414925db74100d90dda1421a99ed9",
      "function": null,
      "arguments": null,
      "transaction": {
        "from": "0x6bdf6d887038ab97957c2f57d05edd0eb338589a",
        "gas": "0xae7fb",
        "value": "0x0",
        "input": "0x6080604052348015600e575f5ffd5b505f80546001600160a01b031916331790556108918061002d5f395ff3fe608060405234801561000f575f5ffd5b506004361061007a575f3560e01c8063ae39cc8711610058578063ae39cc87146100cd578063c942adf7146100df578063d289509814610103578063fe289dfe14610116575f5ffd5b806304345c931461007e57806386b4e0b51461009a5780639f7337f8146100a2575b5f5ffd5b61008760025481565b6040519081526020015b60405180910390f35b610087604681565b6001546100b5906001600160a01b031681565b6040516001600160a01b039091168152602001610091565b5f546100b5906001600160a01b031681565b6100f26100ed366004610504565b61012b565b604051610091959493929190610549565b610087610111366004610594565b6101e4565b61012961012436600461065a565b6104b9565b005b60036020525f90815260409020805460018201805491929161014c90610687565b80601f016020809104026020016040519081016040528092919081815260200182805461017890610687565b80156101c35780601f1061019a576101008083540402835291602001916101c3565b820191905f5260205f20905b8154815290600101906020018083116101a657829003601f168201915b50505050600283015460038401546004909401549293909290915060ff1685565b5f80546001600160a01b031633146102175760405162461bcd60e51b815260040161020e906106bf565b60405180910390fd5b60648411158015610229575060648311155b6102815760405162461bcd60e51b815260206004820152602360248201527f4572726f723a2050657263656e746167657320626f756e64732065786365656460448201526232b21760e91b606482015260840161020e565b604684101561031e5760405162461bcd60e51b815260206004820152605a60248201527f4572726f723a2041636372656469746174696f6e2072656a65637465642e204360448201527f6f75727365204f7574636f6d652061747461696e6d656e742066616c6c73206260648201527f656c6f772073747269637420373025207468726573686f6c642e000000000000608482015260a40161020e565b60028054905f61032d83610707565b90915550506040805160a0810182526002548082526020808301898152838501899052606084018890526046881015608085018190525f93845260039092529390912082518155925190929060018201906103889082610777565b5060408201518160020155606082015181600301556080820151816004015f6101000a81548160ff0219169083151502179055509050506002547eb524409def835329659642abfa0e8e77777f8d912d49a8a1ab58c66df26db28787846040516103f493929190610832565b60405180910390a26001546001600160a01b0316156104ac576001546001600160a01b031663961bee82335f8461042b575f61042e565b60015b8561043a57600161043c565b5f5b6040516001600160e01b031960e087901b1681526001600160a01b039094166004850152602484019290925260ff90811660448401521660648201526084810186905260a4015f604051808303815f87803b158015610499575f5ffd5b505af19250505080156104aa575060015b505b5050600254949350505050565b5f546001600160a01b031633146104e25760405162461bcd60e51b815260040161020e906106bf565b600180546001600160a01b0319166001600160a01b0392909216919091179055565b5f60208284031215610514575f5ffd5b5035919050565b5f81518084528060208401602086015e5f602082860101526020601f19601f83011685010191505092915050565b85815260a060208201525f61056160a083018761051b565b6040830195909552506060810192909252151560809091015292915050565b634e487b7160e01b5f52604160045260245ffd5b5f5f5f5f608085870312156105a7575f5ffd5b843567ffffffffffffffff8111156105bd575f5ffd5b8501601f810187136105cd575f5ffd5b803567ffffffffffffffff8111156105e7576105e7610580565b604051601f8201601f19908116603f0116810167ffffffffffffffff8111828210171561061657610616610580565b60405281815282820160200189101561062d575f5ffd5b816020840160208301375f6020928201830152989087013597506040870135966060013595509350505050565b5f6020828403121561066a575f5ffd5b81356001600160a01b0381168114610680575f5ffd5b9392505050565b600181811c9082168061069b57607f821691505b6020821081036106b957634e487b7160e01b5f52602260045260245ffd5b50919050565b60208082526028908201527f4572726f723a204f6e6c7920536f7665726569676e20436f6e74726163746f726040820152671030b1b1b2b9b99760c11b606082015260800190565b5f6001820161072457634e487b7160e01b5f52601160045260245ffd5b5060010190565b601f82111561077257805f5260205f20601f840160051c810160208510156107505750805b601f840160051c820191505b8181101561076f575f815560010161075c565b50505b505050565b815167ffffffffffffffff81111561079157610791610580565b6107a58161079f8454610687565b8461072b565b6020601f8211600181146107d7575f83156107c05750848201515b5f19600385901b1c1916600184901b17845561076f565b5f84815260208120601f198516915b8281101561080657878501518255602094850194600190920191016107e6565b508482101561082357868401515f19600387901b60f8161c191681555b50505050600190811b01905550565b606081525f610844606083018661051b565b60208301949094525090151560409091015291905056fea2646970667358221220a66856e654a2204afabc6b6e9e6287b436835d90bed8ed3c2ec3e31d426158b064736f6c634300081e0033",
        "nonce": "0x8",
        "chainId": "0xaa36a7"
      },
      "additionalContracts": [],
      "isFixedGasLimit": false
    },
    {
      "hash": "0x2a553f390ebd54dad14e27661b27e83db8d371c5584cf7493fdaaeb41a70666b",
      "transactionType": "CREATE",
      "contractName": "HolisticCompetencyRegistry",
      "contractAddress": "0x4c7071d4d892cb994a3912b9239e44eb992fb4d0",
      "function": null,
      "arguments": null,
      "transaction": {
        "from": "0x6bdf6d887038ab97957c2f57d05edd0eb338589a",
        "gas": "0x843b1",
        "value": "0x0",
        "input": "0x6080604052348015600e575f5ffd5b505f80546001600160a01b031916331790556106298061002d5f395ff3fe608060405234801561000f575f5ffd5b506004361061007a575f3560e01c8063bdf94a5c11610058578063bdf94a5c146100d5578063d43f7847146100f8578063d762eea41461017f578063fe289dfe14610196575f5ffd5b8063172ed6401461007e5780639f7337f814610093578063ae39cc87146100c3575b5f5ffd5b61009161008c366004610527565b6101a9565b005b6001546100a6906001600160a01b031681565b6040516001600160a01b0390911681526020015b60405180910390f35b5f546100a6906001600160a01b031681565b6100e86100e3366004610567565b610410565b60405190151581526020016100ba565b610145610106366004610567565b60036020525f90815260409020805460018201546002909201546001600160a01b0382169260ff600160a01b8404811693600160a81b90048116921685565b604080516001600160a01b03909616865293151560208601529115159284019290925260608301919091521515608082015260a0016100ba565b61018860025481565b6040519081526020016100ba565b6100916101a4366004610567565b6104b2565b5f546001600160a01b031633146101db5760405162461bcd60e51b81526004016101d290610587565b60405180910390fd5b6001600160a01b0383166102315760405162461bcd60e51b815260206004820152601c60248201527f4572726f723a20496e76616c6964206e6f646520706f696e7465722e0000000060448201526064016101d2565b5f82801561023c5750815b6040805160a0810182526001600160a01b0380881680835287151560208085019182528815158587019081524260608701908152881515608088019081525f958652600390935296842095518654935191511515600160a81b0260ff60a81b19921515600160a01b026001600160a81b03199095169190961617929092179190911692909217835592516001830155516002918201805491151560ff199092169190911790558054929350906102f1836105cf565b9190505550836001600160a01b03167fd782717688e3b7eec334f9a1199ec062109a5825ef4addb9130b12474ce8466e82604051610333911515815260200190565b60405180910390a26001546001600160a01b03161561040a576001546001600160a01b031663961bee82855f8461036a575f61036d565b60015b8561037957600161037b565b5f5b6040516001600160e01b031960e087901b1681526001600160a01b039094166004850152602484019290925260ff90811660448401521660648201527f564943544f5249414e5f4143545f434f4d504554454e43595f534554544c4544608482015260a4015f604051808303815f87803b1580156103f7575f5ffd5b505af1925050508015610408575060015b505b50505050565b6001600160a01b0381165f908152600360205260408120600281015460ff16801561045757508054600160a01b900460ff16158061045757508054600160a81b900460ff16155b156104a45760028101805460ff191690556040516001600160a01b038416907f6cd6f91d2dc8c78e6678ca295e5299fcfea5a4a1824015b395118e796f6ec49b905f90a250600192915050565b6002015460ff161592915050565b5f546001600160a01b031633146104db5760405162461bcd60e51b81526004016101d290610587565b600180546001600160a01b0319166001600160a01b0392909216919091179055565b80356001600160a01b0381168114610513575f5ffd5b919050565b80358015158114610513575f5ffd5b5f5f5f60608486031215610539575f5ffd5b610542846104fd565b925061055060208501610518565b915061055e60408501610518565b90509250925092565b5f60208284031215610577575f5ffd5b610580826104fd565b9392505050565b60208082526028908201527f4572726f723a204f6e6c7920536f7665726569676e20436f6e74726163746f726040820152671030b1b1b2b9b99760c11b606082015260800190565b5f600182016105ec57634e487b7160e01b5f52601160045260245ffd5b506001019056fea26469706673582212206ce2f9bdccce8b450b0aa1e9030d4190d4f72c34228b35beb50b4f20c30dfe4d64736f6c634300081e0033",
        "nonce": "0x9",
        "chainId": "0xaa36a7"
      },
      "additionalContracts": [],
      "isFixedGasLimit": false
    },
    {
      "hash": "0xbd0ad95a1b875644bdc0787ffe7056aa0760ccb3b129596efda605f661335334",
      "transactionType": "CREATE",
      "contractName": "NetworkEngineerPerformanceAudit",
      "contractAddress": "0x598955f01a137ce6982b3df84e573a5ec7ec40cd",
      "function": null,
      "arguments": null,
      "transaction": {
        "from": "0x6bdf6d887038ab97957c2f57d05edd0eb338589a",
        "gas": "0x94ab3",
        "value": "0x0",
        "input": "0x6080604052348015600e575f5ffd5b505f80546001600160a01b031916331790556107198061002d5f395ff3fe608060405234801561000f575f5ffd5b5060043610610060575f3560e01c80634a07147f146100645780634dea7828146100805780639d80336a146100935780639f7337f8146100ef578063ae39cc871461011a578063fe289dfe1461012c575b5f5ffd5b61006d60035481565b6040519081526020015b60405180910390f35b61006d61008e36600461058c565b610141565b6100de6100a13660046105cc565b600260208190525f9182526040909120805460018201549282015460039092015490926001600160a01b0316919060ff8082169161010090041685565b604051610077959493929190610620565b600154610102906001600160a01b031681565b6040516001600160a01b039091168152602001610077565b5f54610102906001600160a01b031681565b61013f61013a3660046105cc565b610526565b005b5f80546001600160a01b031633146101745760405162461bcd60e51b815260040161016b9061065c565b60405180910390fd5b6001600160a01b0384166101d85760405162461bcd60e51b815260206004820152602560248201527f4572726f723a20496e76616c696420656e67696e656572206e6f6465206164646044820152643932b9b99760d91b606482015260840161016b565b61271083111561023c5760405162461bcd60e51b815260206004820152602960248201527f4572726f723a20557074696d652070657263656e7461676520626f756e64732060448201526832bc31b2b2b232b21760b91b606482015260840161016b565b60038054905f61024b836106a4565b909155505f90506002836003811115610266576102666105ec565b10158015610276575061251c8410155b90506040518060a001604052806003548152602001866001600160a01b031681526020018581526020018460038111156102b2576102b26105ec565b81528215156020918201526001600160a01b038781165f90815260028084526040918290208551815593850151600180860180546001600160a01b031916929095169190911790935590840151908301556060830151600380840180549293909260ff1916918490811115610329576103296105ec565b021790555060808201518160030160016101000a81548160ff021916908315150217905550905050846001600160a01b03167fdfea676d0877934c68a3d326270abac7eb8d13377894cbd8e712ce440a62b1d5848660405161038c9291906106c8565b60405180910390a280610474576040516001600160a01b038616907f2c3364dcd52915ce2137d30e8ee67de8082bdade64a773fd4714fc0d2f992372905f90a26001546001600160a01b03161561046f5760018054604051634b0df74160e11b81526001600160a01b0388811660048301525f60248301819052604483015260648201939093527f454e47494e4545525f504552465f53414e4354494f4e5f464c41470000000000608482015291169063961bee829060a4015f604051808303815f87803b15801561045c575f5ffd5b505af192505050801561046d575060015b505b61051a565b6001546001600160a01b03161561051a5760018054604051634b0df74160e11b81526001600160a01b0388811660048301525f60248301819052604483019490945260648201939093527f454e47494e4545525f504552465f434f4d504c49414e54000000000000000000608482015291169063961bee829060a4015f604051808303815f87803b158015610507575f5ffd5b505af1925050508015610518575060015b505b50506003549392505050565b5f546001600160a01b0316331461054f5760405162461bcd60e51b815260040161016b9061065c565b600180546001600160a01b0319166001600160a01b0392909216919091179055565b80356001600160a01b0381168114610587575f5ffd5b919050565b5f5f5f6060848603121561059e575f5ffd5b6105a784610571565b9250602084013591506040840135600481106105c1575f5ffd5b809150509250925092565b5f602082840312156105dc575f5ffd5b6105e582610571565b9392505050565b634e487b7160e01b5f52602160045260245ffd5b6004811061061c57634e487b7160e01b5f52602160045260245ffd5b9052565b8581526001600160a01b03851660208201526040810184905260a0810161064a6060830185610600565b82151560808301529695505050505050565b60208082526028908201527f4572726f723a204f6e6c7920536f7665726569676e20436f6e74726163746f726040820152671030b1b1b2b9b99760c11b606082015260800190565b5f600182016106c157634e487b7160e01b5f52601160045260245ffd5b5060010190565b604081016106d68285610600565b826020830152939250505056fea2646970667358221220f5be2c57e27f714c8479b0e030650e0f334c0973d71ceb594c0562a4989734d864736f6c634300081e0033",
        "nonce": "0xa",
        "chainId": "0xaa36a7"
      },
      "additionalContracts": [],
      "isFixedGasLimit": false
    },
    {
      "hash": "0xe1f2ef14951cb4b3939da08f88b4326cfce51893236af1cf94870309b99c55f0",
      "transactionType": "CREATE",
      "contractName": "IetTechnicalReportRegistry",
      "contractAddress": "0x16a04788681beeedce19afda5757bee0fbf4ce6e",
      "function": null,
      "arguments": null,
      "transaction": {
        "from": "0x6bdf6d887038ab97957c2f57d05edd0eb338589a",
        "gas": "0x7a167",
        "value": "0x0",
        "input": "0x6080604052348015600e575f5ffd5b505f80546001600160a01b031916331790556105958061002d5f395ff3fe608060405234801561000f575f5ffd5b5060043610610060575f3560e01c8063837e310f146100645780639f7337f81461008a578063ae39cc87146100b5578063b00eba4f146100c7578063c942adf7146100d0578063fe289dfe1461015a575b5f5ffd5b610077610072366004610473565b61016f565b6040519081526020015b60405180910390f35b60015461009d906001600160a01b031681565b6040516001600160a01b039091168152602001610081565b5f5461009d906001600160a01b031681565b61007760035481565b6101216100de3660046104bc565b600260208190525f91825260409091208054600182015492820154600383015460049093015491936001600160a01b031692909160ff8082169161010090041686565b604080519687526001600160a01b03909516602087015293850192909252606084015215156080830152151560a082015260c001610081565b61016d6101683660046104d3565b61040d565b005b5f80546001600160a01b031633146101a25760405162461bcd60e51b8152600401610199906104f3565b60405180910390fd5b836102025760405162461bcd60e51b815260206004820152602a60248201527f4572726f723a204d697373696e6720726571756972656d656e7473207472616360448201526935b4b733903430b9b41760b11b6064820152608401610199565b816102855760405162461bcd60e51b815260206004820152604760248201527f4572726f723a205374727563747572616c2076696f6c6174696f6e2e2054656360448201527f686e6963616c207265706f727473206d75737420696e636c75646520726566656064820152663932b731b2b99760c91b608482015260a401610199565b60038054905f6102948361053b565b90915550506040805160c081018252600380548083526001600160a01b0389811660208086018281528688018c8152606088018c81528b151560808a01908152600160a08b018181525f998a526002808852998d90209b518c559451908b0180546001600160a01b0319169190981617909655905195880195909555935186860155915160049095018054935161ffff1990941695151561ff001916959095176101009315159390930292909217909355905492518781529092917fa8f0cb062320eebba1fb1055cb89db8c202fda0bdeb9611997951831312545e9910160405180910390a36001546001600160a01b0316156104015760018054604051634b0df74160e11b81526001600160a01b0388811660048301525f60248301819052604483019490945260648201939093526084810187905291169063961bee829060a4015f604051808303815f87803b1580156103ee575f5ffd5b505af19250505080156103ff575060015b505b50600354949350505050565b5f546001600160a01b031633146104365760405162461bcd60e51b8152600401610199906104f3565b600180546001600160a01b0319166001600160a01b0392909216919091179055565b80356001600160a01b038116811461046e575f5ffd5b919050565b5f5f5f5f60808587031215610486575f5ffd5b61048f85610458565b93506020850135925060408501359150606085013580151581146104b1575f5ffd5b939692955090935050565b5f602082840312156104cc575f5ffd5b5035919050565b5f602082840312156104e3575f5ffd5b6104ec82610458565b9392505050565b60208082526028908201527f4572726f723a204f6e6c7920536f7665726569676e20436f6e74726163746f726040820152671030b1b1b2b9b99760c11b606082015260800190565b5f6001820161055857634e487b7160e01b5f52601160045260245ffd5b506001019056fea26469706673582212205c02f23afd9cee6945670b95e3fc20c0cc3a8e3674283eed098e44339973675564736f6c634300081e0033",
        "nonce": "0xb",
        "chainId": "0xaa36a7"
      },
      "additionalContracts": [],
      "isFixedGasLimit": false
    },
    {
      "hash": "0xa1f7374b7f8c18ec6119abbf51b363f4e9cc91dd26c8bbdb44dcb71700370839",
      "transactionType": "CREATE",
      "contractName": "PersonalGrowthBetEscrow",
      "contractAddress": "0x0800dc1015585f8a78b7d386f976c2046ac27846",
      "function": null,
      "arguments": null,
      "transaction": {
        "from": "0x6bdf6d887038ab97957c2f57d05edd0eb338589a",
        "gas": "0xc82c7",
        "value": "0x0",
        "input": "0x6080604052348015600e575f5ffd5b505f80546001600160a01b03191633179055610a078061002d5f395ff3fe60806040526004361061006e575f3560e01c80639f7337f81161004c5780639f7337f814610173578063ae39cc87146101aa578063befa1e2f146101c8578063fe289dfe146101dd575f5ffd5b806322af00fa146100725780639276c78a1461013157806398ddf7fe14610152575b5f5ffd5b34801561007d575f5ffd5b506100e061008c3660046108d6565b600260208190525f9182526040909120805460018201549282015460038301546004840154600585015460069095015493956001600160a01b03908116959394929391169160ff8082169161010090041688565b604080519889526001600160a01b0397881660208a015288019590955260608701939093529316608085015260a084019290925290151560c0830152151560e0820152610100015b60405180910390f35b61014461013f366004610908565b6101fc565b604051908152602001610128565b34801561015d575f5ffd5b5061017161016c36600461093a565b61046a565b005b34801561017e575f5ffd5b50600154610192906001600160a01b031681565b6040516001600160a01b039091168152602001610128565b3480156101b5575f5ffd5b505f54610192906001600160a01b031681565b3480156101d3575f5ffd5b5061014460035481565b3480156101e8575f5ffd5b506101716101f736600461096c565b61084a565b5f5f341161028d5760405162461bcd60e51b815260206004820152604d60248201527f4572726f723a20496e76617269616e742076696f6c6174696f6e2e2047726f7760448201527f7468206265742072657175697265732066696e616e6369616c20636f6c6c617460648201526c32b930b6103232b837b9b4ba1760991b608482015260a4015b60405180910390fd5b6001600160a01b038316158015906102ae57506001600160a01b0383163314155b61030f5760405162461bcd60e51b815260206004820152602c60248201527f4572726f723a20496e76616c6964206e65757472616c206576616c7561746f7260448201526b1030b63637b1b0ba34b7b71760a11b6064820152608401610284565b60038054905f61031e836109a0565b91905055506040518061010001604052806003548152602001336001600160a01b03168152602001348152602001854361035891906109b8565b81526001600160a01b0380861660208084019190915260408084018790525f6060808601829052608095860182905260038054835260028086529284902088518155948801516001860180549188166001600160a01b0319928316179055938801519285019290925586015183820155938501516004830180549190941691161790915560a0830151600582015560c08301516006909101805460e09094015115156101000261ff00199215159290921661ffff1990941693909317179091555433907f24c02bee16303f479ae4ab6f7950501d221d3483b17b1ce786f20380a354d7523461044788436109b8565b6040805192835260208301919091520160405180910390a3506003549392505050565b5f8281526002602052604090206004015482906001600160a01b031633146104ee5760405162461bcd60e51b815260206004820152603160248201527f4572726f723a20556e617574686f72697a6564206576616c7561746f72206e6f60448201527032329031b7b73334b3bab930ba34b7b71760791b6064820152608401610284565b5f838152600260205260409020600681015460ff16156105765760405162461bcd60e51b815260206004820152603a60248201527f4572726f723a204c696665206379636c6520666f72207461726765742067726f60448201527f7774682062657420616c726561647920636f6e636c756465642e0000000000006064820152608401610284565b600681018054841580156101000261ffff19909216919091176001179091556106a1576002810180545f9182905560018301546040519192916001600160a01b039091169083908381818185875af1925050503d805f81146105f3576040519150601f19603f3d011682016040523d82523d5f602084013e6105f8565b606091505b50509050806106625760405162461bcd60e51b815260206004820152603060248201527f4572726f723a20436f6c6c61746572616c20646973747269627574696f6e206560448201526f3c32b1baba34b7b7103330b4b632b21760811b6064820152608401610284565b60405182815260019087907fa00bb065e30c2f9b8993862f7bb5ec08149fd125fd4c018591bee6efc94f209d9060200160405180910390a35050610844565b6002810180545f9182905581546040519192916001600160a01b039091169083908381818185875af1925050503d805f81146106f8576040519150601f19603f3d011682016040523d82523d5f602084013e6106fd565b606091505b50509050806107635760405162461bcd60e51b815260206004820152602c60248201527f4572726f723a20466f726665697475726520726f7574696e6720706172616d6560448201526b3a32b939903330b4b632b21760a11b6064820152608401610284565b5f80546040516001600160a01b039091169188917f54013728e795a2816b98ffbbf1887ef189a2dec57b11f3d9bbda6ed114c2d4749190a36001546001600160a01b031615610841576001805484820154604051634b0df74160e11b81526001600160a01b0391821660048201525f60248201819052604482015260648101939093527f47524f5754485f4245545f464f52464549545f53414e4354494f4e00000000006084840152169063961bee829060a4015f604051808303815f87803b15801561082e575f5ffd5b505af192505050801561083f575060015b505b50505b50505050565b5f546001600160a01b031633146108b45760405162461bcd60e51b815260206004820152602860248201527f4572726f723a204f6e6c7920536f7665726569676e20436f6e74726163746f726044820152671030b1b1b2b9b99760c11b6064820152608401610284565b600180546001600160a01b0319166001600160a01b0392909216919091179055565b5f602082840312156108e6575f5ffd5b5035919050565b80356001600160a01b0381168114610903575f5ffd5b919050565b5f5f5f6060848603121561091a575f5ffd5b8335925061092a602085016108ed565b9150604084013590509250925092565b5f5f6040838503121561094b575f5ffd5b8235915060208301358015158114610961575f5ffd5b809150509250929050565b5f6020828403121561097c575f5ffd5b610985826108ed565b9392505050565b634e487b7160e01b5f52601160045260245ffd5b5f600182016109b1576109b161098c565b5060010190565b808201808211156109cb576109cb61098c565b9291505056fea26469706673582212202094e1e474f922d9158eeb256a2d50df298d309b2891e7ef87bdbdc6bfb6f39064736f6c634300081e0033",
        "nonce": "0xc",
        "chainId": "0xaa36a7"
      },
      "additionalContracts": [],
      "isFixedGasLimit": false
    },
    {
      "hash": "0xc71d1c8148ca93c43d5a5c573ac20b02c144c2b223f6b2546aff11e851b388b4",
      "transactionType": "CREATE",
      "contractName": "SovereignSupplierEsourcingRouter",
      "contractAddress": "0x2a24d7cf4da1588bf6ce57cf7c9e31dedac40d61",
      "function": null,
      "arguments": null,
      "transaction": {
        "from": "0x6bdf6d887038ab97957c2f57d05edd0eb338589a",
        "gas": "0x95739",
        "value": "0x0",
        "input": "0x6080604052348015600e575f5ffd5b505f80546001600160a01b031916331790556107248061002d5f395ff3fe608060405234801561000f575f5ffd5b506004361061007a575f3560e01c8063a720d24d11610058578063a720d24d14610159578063ae174e3b14610162578063ae39cc8714610177578063fe289dfe14610189575f5ffd5b806316dc15fe1461007e5780639f7337f81461010d578063a69fbc5714610138575b5f5ffd5b6100cf61008c36600461063a565b600260208190525f91825260409091208054600182015492820154600383015460049093015491936001600160a01b031692909160ff8082169161010090041686565b604080519687526001600160a01b03909516602087015293850192909252606084015215156080830152151560a082015260c0015b60405180910390f35b600154610120906001600160a01b031681565b6040516001600160a01b039091168152602001610104565b61014b61014636600461065a565b61019c565b604051908152602001610104565b61014b60035481565b61017561017036600461065a565b6103b3565b005b5f54610120906001600160a01b031681565b61017561019736600461063a565b6105d4565b5f80546001600160a01b031633146101cf5760405162461bcd60e51b81526004016101c690610682565b60405180910390fd5b6001600160a01b0383166102365760405162461bcd60e51b815260206004820152602860248201527f4572726f723a20496e76616c696420737570706c696572206e6f646520696465604482015267373a34b334b2b91760c11b60648201526084016101c6565b816102b75760405162461bcd60e51b815260206004820152604560248201527f4572726f723a20534e4720496e54656e64204672616d65776f726b207265717560448201527f6972656d656e742e204d697373696e6720414d4c2076616c69646174696f6e206064820152643430b9b41760d91b608482015260a4016101c6565b60038054905f6102c6836106ca565b90915550506040805160c0810182526003805482526001600160a01b03868116602080850182815285870189815242606088019081526001608089018181525f60a08b018181528882526002808952918d90209b518c559551928b0180546001600160a01b03191693909916929092179097559151918801919091555194860194909455915160049094018054935161ffff1990941694151561ff00191694909417610100931515939093029290921790925591518481527f4932e93cc4b7c4030885d78ae918204a68be3c792371bf0eebc7abfe996d80b4910160405180910390a25060035492915050565b5f546001600160a01b031633146103dc5760405162461bcd60e51b81526004016101c690610682565b6001600160a01b0382165f908152600260205260409020600481015460ff166104655760405162461bcd60e51b815260206004820152603560248201527f4572726f723a2054617267657420737570706c6965722070726f66696c652069604482015274399031bab93932b73a363c9034b730b1ba34bb329760591b60648201526084016101c6565b60048101805461ffff19166101001790556040516001600160a01b038416907f6ff3b85526ac4fb2835ecb05843ffca0145773d5544f51a64b1f67d9ed8fead0906104e19060208082526018908201527f534e475f434350415f4252454143485f44455445435445440000000000000000604082015260600190565b60405180910390a2826001600160a01b03167f3e397f735882f6d178a8d11950754794cbc3ee8fe68c207a09ae4b81261e5a718360405161052491815260200190565b60405180910390a26001546001600160a01b0316156105cf5760018054604051634b0df74160e11b81526001600160a01b0386811660048301525f60248301819052604483015260648201939093527f534e475f505249564143595f4252454143485f4c4f434b444f574e0000000000608482015291169063961bee829060a4015f604051808303815f87803b1580156105bc575f5ffd5b505af19250505080156105cd575060015b505b505050565b5f546001600160a01b031633146105fd5760405162461bcd60e51b81526004016101c690610682565b600180546001600160a01b0319166001600160a01b0392909216919091179055565b80356001600160a01b0381168114610635575f5ffd5b919050565b5f6020828403121561064a575f5ffd5b6106538261061f565b9392505050565b5f5f6040838503121561066b575f5ffd5b6106748361061f565b946020939093013593505050565b60208082526028908201527f4572726f723a204f6e6c7920536f7665726569676e20436f6e74726163746f726040820152671030b1b1b2b9b99760c11b606082015260800190565b5f600182016106e757634e487b7160e01b5f52601160045260245ffd5b506001019056fea2646970667358221220321284457f00f9a36615b12756a8498d3ff1746a0d8ee62e580e7b2b88acf4b764736f6c634300081e0033",
        "nonce": "0xd",
        "chainId": "0xaa36a7"
      },
      "additionalContracts": [],
      "isFixedGasLimit": false
    },
    {
      "hash": "0xf33bb21f9cfbd8c89f833ca7ac3341e467da6e109a6d86070b46c00573125ab0",
      "transactionType": "CREATE",
      "contractName": "ForceMajeureMdrOracle",
      "contractAddress": "0x1fa2bf7f5bfa6ef235773beda019a63719b5c583",
      "function": null,
      "arguments": null,
      "transaction": {
        "from": "0x6bdf6d887038ab97957c2f57d05edd0eb338589a",
        "gas": "0xc9d5b",
        "value": "0x0",
        "input": "0x6080604052348015600e575f5ffd5b505f80546001600160a01b03191633179055610a1f8061002d5f395ff3fe608060405260043610610077575f3560e01c8063abcfa6491161004a578063abcfa64914610163578063ae39cc8714610182578063cc2a4c34146101a0578063fe289dfe146101bf57005b80631e72079514610079578063564a565d1461009f5780638d9cf7ad146101175780639f7337f81461012c575b005b61008c610087366004610828565b6101de565b6040519081526020015b60405180910390f35b3480156100aa575f5ffd5b506101046100b9366004610862565b600260208190525f9182526040909120805460018201549282015460038301546004840154600585015460069095015493956001600160a01b03908116959394929391169160ff1687565b60405161009697969594939291906108ad565b348015610122575f5ffd5b5061008c60035481565b348015610137575f5ffd5b5060015461014b906001600160a01b031681565b6040516001600160a01b039091168152602001610096565b34801561016e575f5ffd5b5061007761017d3660046108f9565b610453565b34801561018d575f5ffd5b505f5461014b906001600160a01b031681565b3480156101ab575f5ffd5b506100776101ba366004610862565b6106ed565b3480156101ca575f5ffd5b506100776101d9366004610921565b6107c2565b5f80546001600160a01b031633146102115760405162461bcd60e51b815260040161020890610941565b60405180910390fd5b5f3411610288576040805162461bcd60e51b81526020600482015260248101919091527f4572726f723a204469737075746520696e697469616c697a6174696f6e20726560448201527f71756972657320626173656c696e6520636f6c6c61746572616c206c6f636b2e6064820152608401610208565b6001600160a01b0383166102f75760405162461bcd60e51b815260206004820152603060248201527f4572726f723a204d697373696e67206e65757472616c2061726269747261746f60448201526f391039b832b1b4b334b1b0ba34b7b71760811b6064820152608401610208565b60038054905f6103068361099d565b91905055506040518060e001604052806003548152602001856001600160a01b03168152602001348152602001436103e861034191906109b5565b81526001600160a01b03851660208201526040810184905260600160019052600380545f908152600260208181526040928390208551815590850151600180830180546001600160a01b039384166001600160a01b031991821617909155948701519383019390935560608601519482019490945560808501516004808301805492909616919094161790935560a0840151600584015560c08401516006840180549193909260ff199092169190849081111561040057610400610879565b0217905550506003546040513481526001600160a01b03871692507ff809123e72d8ac50b02e617c682a3eff953d382122ee8c1101dbcc8084ec43bd9060200160405180910390a3506003549392505050565b5f8381526002602052604090206004015483906001600160a01b031633146104d25760405162461bcd60e51b815260206004820152602c60248201527f4572726f723a20556e617574686f72697a6564206e65757472616c206172626960448201526b3a3930ba37b9103737b2329760a11b6064820152608401610208565b5f84815260026020819052604090912090600682015460ff1660048111156104fc576104fc610879565b146105585760405162461bcd60e51b815260206004820152602660248201527f4572726f723a204d6564696174696f6e207374616765206d757374206265206160448201526531ba34bb329760d11b6064820152608401610208565b6002810180545f90915584156105b65760068201805460ff1916600317905560018201546040516001600160a01b03909116906108fc8315029083905f818181858888f193505050501580156105b0573d5f5f3e3d5ffd5b506106a2565b60068201805460ff191660041790555f80546040516001600160a01b03909116916108fc841502918491818181858888f193505050501580156105fb573d5f5f3e3d5ffd5b506001546001600160a01b0316156106a2576001805483820154604051634b0df74160e11b81526001600160a01b0391821660048201525f60248201819052604482015260648101939093527f464f5243455f4d414a455552455f484f4c4455505f52454a45435445440000006084840152169063961bee829060a4015f604051808303815f87803b15801561068f575f5ffd5b505af19250505080156106a0575060015b505b600682015460405187917f82845effe44d2b177aa692bf884c613a79a233de3fde3ff78dbcf0d4c9d96067916106dd9160ff169088906109ce565b60405180910390a2505050505050565b5f8181526002602052604090206001600682015460ff16600481111561071557610715610879565b146107755760405162461bcd60e51b815260206004820152602a60248201527f4572726f723a20496e76616c6964207472616e73616374696f6e206f726465726044820152691039b2b8bab2b731b29760b11b6064820152608401610208565b60068101805460ff19166002179055600381015460405190815282907f43d50255e45681b97fcc01455d9d0cfcb8760c3d63a725a8bd9a1e42761baf7f9060200160405180910390a25050565b5f546001600160a01b031633146107eb5760405162461bcd60e51b815260040161020890610941565b600180546001600160a01b0319166001600160a01b0392909216919091179055565b80356001600160a01b0381168114610823575f5ffd5b919050565b5f5f5f6060848603121561083a575f5ffd5b6108438461080d565b92506108516020850161080d565b929592945050506040919091013590565b5f60208284031215610872575f5ffd5b5035919050565b634e487b7160e01b5f52602160045260245ffd5b600581106108a957634e487b7160e01b5f52602160045260245ffd5b9052565b8781526001600160a01b03878116602083015260408201879052606082018690528416608082015260a0810183905260e081016108ed60c083018461088d565b98975050505050505050565b5f5f5f6060848603121561090b575f5ffd5b8335925060208401358015158114610851575f5ffd5b5f60208284031215610931575f5ffd5b61093a8261080d565b9392505050565b60208082526028908201527f4572726f723a204f6e6c7920536f7665726569676e20436f6e74726163746f726040820152671030b1b1b2b9b99760c11b606082015260800190565b634e487b7160e01b5f52601160045260245ffd5b5f600182016109ae576109ae610989565b5060010190565b808201808211156109c8576109c8610989565b92915050565b604081016109dc828561088d565b826020830152939250505056fea2646970667358221220e0d6232f7a4b8acc758f333e9d47bbe6361a9f299418b76f8945350cb351f80164736f6c634300081e0033",
        "nonce": "0xe",
        "chainId": "0xaa36a7"
      },
      "additionalContracts": [],
      "isFixedGasLimit": false
    },
    {
      "hash": "0x71957ee0b0d8ce4b23aedd9ee4e897acb0f3808854e06347dddb2fd1a9828c33",
      "transactionType": "CALL",
      "contractName": "FinancialIndexReconstitutionOracle",
      "contractAddress": "0xd0ba898e929d319cf9b287fcb2710b84de9582cc",
      "function": "setAuditHistoryAddress(address)",
      "arguments": [
        "0xE8E0e4F795A1A285395F6F8d5EA80adEf8c076F1"
      ],
      "transaction": {
        "from": "0x6bdf6d887038ab97957c2f57d05edd0eb338589a",
        "to": "0xd0ba898e929d319cf9b287fcb2710b84de9582cc",
        "gas": "0xf900",
        "value": "0x0",
        "input": "0xfe289dfe000000000000000000000000e8e0e4f795a1a285395f6f8d5ea80adef8c076f1",
        "nonce": "0xf",
        "chainId": "0xaa36a7"
      },
      "additionalContracts": [],
      "isFixedGasLimit": false
    },
    {
      "hash": "0xad8c97f3e39712092e9151efc166f04d4b339b11e2ebc9e8d78a92dcc5112ee2",
      "transactionType": "CALL",
      "contractName": "WipoContentExpertDetermination",
      "contractAddress": "0xa677ae0b7a52023b5f292ce04f6344cbc4a35dbf",
      "function": "setAuditHistoryAddress(address)",
      "arguments": [
        "0xE8E0e4F795A1A285395F6F8d5EA80adEf8c076F1"
      ],
      "transaction": {
        "from": "0x6bdf6d887038ab97957c2f57d05edd0eb338589a",
        "to": "0xa677ae0b7a52023b5f292ce04f6344cbc4a35dbf",
        "gas": "0xf8e2",
        "value": "0x0",
        "input": "0xfe289dfe000000000000000000000000e8e0e4f795a1a285395f6f8d5ea80adef8c076f1",
        "nonce": "0x10",
        "chainId": "0xaa36a7"
      },
      "additionalContracts": [],
      "isFixedGasLimit": false
    },
    {
      "hash": "0x4885cda732f66c5f3f3e2e239919687412320d783a4564be10830df4018b4d71",
      "transactionType": "CALL",
      "contractName": "QualityAssuranceSelfAssessment",
      "contractAddress": "0x7e0c8d03218daaa408c16c3e580dad36fc0fc4af",
      "function": "setAuditHistoryAddress(address)",
      "arguments": [
        "0xE8E0e4F795A1A285395F6F8d5EA80adEf8c076F1"
      ],
      "transaction": {
        "from": "0x6bdf6d887038ab97957c2f57d05edd0eb338589a",
        "to": "0x7e0c8d03218daaa408c16c3e580dad36fc0fc4af",
        "gas": "0xf893",
        "value": "0x0",
        "input": "0xfe289dfe000000000000000000000000e8e0e4f795a1a285395f6f8d5ea80adef8c076f1",
        "nonce": "0x11",
        "chainId": "0xaa36a7"
      },
      "additionalContracts": [],
      "isFixedGasLimit": false
    },
    {
      "hash": "0x88effd7d815cb12fd5a8914e2339e9b31e52107c76264a3f676692b10b94bc63",
      "transactionType": "CALL",
      "contractName": "FoundationGovernanceLedger",
      "contractAddress": "0x55978b20a4915069fc9fb6f6304a1a2922650a5e",
      "function": "setAuditHistoryAddress(address)",
      "arguments": [
        "0xE8E0e4F795A1A285395F6F8d5EA80adEf8c076F1"
      ],
      "transaction": {
        "from": "0x6bdf6d887038ab97957c2f57d05edd0eb338589a",
        "to": "0x55978b20a4915069fc9fb6f6304a1a2922650a5e",
        "gas": "0x10765",
        "value": "0x0",
        "input": "0xfe289dfe000000000000000000000000e8e0e4f795a1a285395f6f8d5ea80adef8c076f1",
        "nonce": "0x12",
        "chainId": "0xaa36a7"
      },
      "additionalContracts": [],
      "isFixedGasLimit": false
    },
    {
      "hash": "0x75a80002d61fefee17f7639877d83fd1dab59a743e3442fe9b294296d2924170",
      "transactionType": "CALL",
      "contractName": "AcademicAccreditationSAROracle",
      "contractAddress": "0xe23fc6c514b414925db74100d90dda1421a99ed9",
      "function": "setAuditHistoryAddress(address)",
      "arguments": [
        "0xE8E0e4F795A1A285395F6F8d5EA80adEf8c076F1"
      ],
      "transaction": {
        "from": "0x6bdf6d887038ab97957c2f57d05edd0eb338589a",
        "to": "0xe23fc6c514b414925db74100d90dda1421a99ed9",
        "gas": "0xf893",
        "value": "0x0",
        "input": "0xfe289dfe000000000000000000000000e8e0e4f795a1a285395f6f8d5ea80adef8c076f1",
        "nonce": "0x13",
        "chainId": "0xaa36a7"
      },
      "additionalContracts": [],
      "isFixedGasLimit": false
    },
    {
      "hash": "0x63942d1b59af93a3986fd4f1350994e43db25a42390079422bdb8a7b224d3e5a",
      "transactionType": "CALL",
      "contractName": "HolisticCompetencyRegistry",
      "contractAddress": "0x4c7071d4d892cb994a3912b9239e44eb992fb4d0",
      "function": "setAuditHistoryAddress(address)",
      "arguments": [
        "0xE8E0e4F795A1A285395F6F8d5EA80adEf8c076F1"
      ],
      "transaction": {
        "from": "0x6bdf6d887038ab97957c2f57d05edd0eb338589a",
        "to": "0x4c7071d4d892cb994a3912b9239e44eb992fb4d0",
        "gas": "0x10765",
        "value": "0x0",
        "input": "0xfe289dfe000000000000000000000000e8e0e4f795a1a285395f6f8d5ea80adef8c076f1",
        "nonce": "0x14",
        "chainId": "0xaa36a7"
      },
      "additionalContracts": [],
      "isFixedGasLimit": false
    },
    {
      "hash": "0x4f89236f3976c2f6d932076a97e3ca5b494265ecaf25736ce12b7344b0d97249",
      "transactionType": "CALL",
      "contractName": "NetworkEngineerPerformanceAudit",
      "contractAddress": "0x598955f01a137ce6982b3df84e573a5ec7ec40cd",
      "function": "setAuditHistoryAddress(address)",
      "arguments": [
        "0xE8E0e4F795A1A285395F6F8d5EA80adEf8c076F1"
      ],
      "transaction": {
        "from": "0x6bdf6d887038ab97957c2f57d05edd0eb338589a",
        "to": "0x598955f01a137ce6982b3df84e573a5ec7ec40cd",
        "gas": "0xf8e2",
        "value": "0x0",
        "input": "0xfe289dfe000000000000000000000000e8e0e4f795a1a285395f6f8d5ea80adef8c076f1",
        "nonce": "0x15",
        "chainId": "0xaa36a7"
      },
      "additionalContracts": [],
      "isFixedGasLimit": false
    },
    {
      "hash": "0x79fa42d6392b397b6cd2d7b84ad8dff1e6c4fb8bbd4bbaff78ee2d959f02d6e5",
      "transactionType": "CALL",
      "contractName": "IetTechnicalReportRegistry",
      "contractAddress": "0x16a04788681beeedce19afda5757bee0fbf4ce6e",
      "function": "setAuditHistoryAddress(address)",
      "arguments": [
        "0xE8E0e4F795A1A285395F6F8d5EA80adEf8c076F1"
      ],
      "transaction": {
        "from": "0x6bdf6d887038ab97957c2f57d05edd0eb338589a",
        "to": "0x16a04788681beeedce19afda5757bee0fbf4ce6e",
        "gas": "0xf8e2",
        "value": "0x0",
        "input": "0xfe289dfe000000000000000000000000e8e0e4f795a1a285395f6f8d5ea80adef8c076f1",
        "nonce": "0x16",
        "chainId": "0xaa36a7"
      },
      "additionalContracts": [],
      "isFixedGasLimit": false
    },
    {
      "hash": "0x7579efe75331b93caa532ccec4e1c24f8edd3aa3a4e05573ea231c1283c0d0be",
      "transactionType": "CALL",
      "contractName": "PersonalGrowthBetEscrow",
      "contractAddress": "0x0800dc1015585f8a78b7d386f976c2046ac27846",
      "function": "setAuditHistoryAddress(address)",
      "arguments": [
        "0xE8E0e4F795A1A285395F6F8d5EA80adEf8c076F1"
      ],
      "transaction": {
        "from": "0x6bdf6d887038ab97957c2f57d05edd0eb338589a",
        "to": "0x0800dc1015585f8a78b7d386f976c2046ac27846",
        "gas": "0x10765",
        "value": "0x0",
        "input": "0xfe289dfe000000000000000000000000e8e0e4f795a1a285395f6f8d5ea80adef8c076f1",
        "nonce": "0x17",
        "chainId": "0xaa36a7"
      },
      "additionalContracts": [],
      "isFixedGasLimit": false
    },
    {
      "hash": "0x2257239be5dc6ef6e8a04f36a8e665d635f9a6819b3edf8b92fb65ef0aa49c65",
      "transactionType": "CALL",
      "contractName": "SovereignSupplierEsourcingRouter",
      "contractAddress": "0x2a24d7cf4da1588bf6ce57cf7c9e31dedac40d61",
      "function": "setAuditHistoryAddress(address)",
      "arguments": [
        "0xE8E0e4F795A1A285395F6F8d5EA80adEf8c076F1"
      ],
      "transaction": {
        "from": "0x6bdf6d887038ab97957c2f57d05edd0eb338589a",
        "to": "0x2a24d7cf4da1588bf6ce57cf7c9e31dedac40d61",
        "gas": "0x10765",
        "value": "0x0",
        "input": "0xfe289dfe000000000000000000000000e8e0e4f795a1a285395f6f8d5ea80adef8c076f1",
        "nonce": "0x18",
        "chainId": "0xaa36a7"
      },
      "additionalContracts": [],
      "isFixedGasLimit": false
    },
    {
      "hash": "0xdfeec29414365129de01af3ff7b3fcadf6281dfb04955dfb919426b6e147437c",
      "transactionType": "CALL",
      "contractName": "ForceMajeureMdrOracle",
      "contractAddress": "0x1fa2bf7f5bfa6ef235773beda019a63719b5c583",
      "function": "setAuditHistoryAddress(address)",
      "arguments": [
        "0xE8E0e4F795A1A285395F6F8d5EA80adEf8c076F1"
      ],
      "transaction": {
        "from": "0x6bdf6d887038ab97957c2f57d05edd0eb338589a",
        "to": "0x1fa2bf7f5bfa6ef235773beda019a63719b5c583",
        "gas": "0x10765",
        "value": "0x0",
        "input": "0xfe289dfe000000000000000000000000e8e0e4f795a1a285395f6f8d5ea80adef8c076f1",
        "nonce": "0x19",
        "chainId": "0xaa36a7"
      },
      "additionalContracts": [],
      "isFixedGasLimit": false
    },
    {
      "hash": "0x92c3637c9c24411978232822671c74737c097a93efcbd803c107250f55e36efd",
      "transactionType": "CALL",
      "contractName": "InstitutionalAuditHistory",
      "contractAddress": "0xe8e0e4f795a1a285395f6f8d5ea80adef8c076f1",
      "function": "setLoggerAuthorization(address,bool)",
      "arguments": [
        "0xd0Ba898e929D319cf9b287FcB2710B84de9582cc",
        "true"
      ],
      "transaction": {
        "from": "0x6bdf6d887038ab97957c2f57d05edd0eb338589a",
        "to": "0xe8e0e4f795a1a285395f6f8d5ea80adef8c076f1",
        "gas": "0x110dc",
        "value": "0x0",
        "input": "0x36649f6a000000000000000000000000d0ba898e929d319cf9b287fcb2710b84de9582cc0000000000000000000000000000000000000000000000000000000000000001",
        "nonce": "0x1a",
        "chainId": "0xaa36a7"
      },
      "additionalContracts": [],
      "isFixedGasLimit": false
    },
    {
      "hash": "0x992f623bb15b6267eadad9ce2a00e9a9273f53dde073e6298838fbcb4988c6e2",
      "transactionType": "CALL",
      "contractName": "InstitutionalAuditHistory",
      "contractAddress": "0xe8e0e4f795a1a285395f6f8d5ea80adef8c076f1",
      "function": "setLoggerAuthorization(address,bool)",
      "arguments": [
        "0xA677ae0B7A52023B5f292Ce04F6344CBc4A35DBf",
        "true"
      ],
      "transaction": {
        "from": "0x6bdf6d887038ab97957c2f57d05edd0eb338589a",
        "to": "0xe8e0e4f795a1a285395f6f8d5ea80adef8c076f1",
        "gas": "0x110dc",
        "value": "0x0",
        "input": "0x36649f6a000000000000000000000000a677ae0b7a52023b5f292ce04f6344cbc4a35dbf0000000000000000000000000000000000000000000000000000000000000001",
        "nonce": "0x1b",
        "chainId": "0xaa36a7"
      },
      "additionalContracts": [],
      "isFixedGasLimit": false
    },
    {
      "hash": "0x59fbe3a3402ba3803b9d47335f0ba1d731c07235cdb2205552998e51725380d5",
      "transactionType": "CALL",
      "contractName": "InstitutionalAuditHistory",
      "contractAddress": "0xe8e0e4f795a1a285395f6f8d5ea80adef8c076f1",
      "function": "setLoggerAuthorization(address,bool)",
      "arguments": [
        "0x7e0c8D03218dAaA408c16C3e580Dad36Fc0fc4af",
        "true"
      ],
      "transaction": {
        "from": "0x6bdf6d887038ab97957c2f57d05edd0eb338589a",
        "to": "0xe8e0e4f795a1a285395f6f8d5ea80adef8c076f1",
        "gas": "0x110dc",
        "value": "0x0",
        "input": "0x36649f6a0000000000000000000000007e0c8d03218daaa408c16c3e580dad36fc0fc4af0000000000000000000000000000000000000000000000000000000000000001",
        "nonce": "0x1c",
        "chainId": "0xaa36a7"
      },
      "additionalContracts": [],
      "isFixedGasLimit": false
    },
    {
      "hash": "0x75fbc52967b2ec1a72a27d8cc94ca15e275a6afd695b1d6a5390ef44d5f7e93e",
      "transactionType": "CALL",
      "contractName": "InstitutionalAuditHistory",
      "contractAddress": "0xe8e0e4f795a1a285395f6f8d5ea80adef8c076f1",
      "function": "setLoggerAuthorization(address,bool)",
      "arguments": [
        "0x55978B20A4915069fc9fB6F6304A1a2922650A5E",
        "true"
      ],
      "transaction": {
        "from": "0x6bdf6d887038ab97957c2f57d05edd0eb338589a",
        "to": "0xe8e0e4f795a1a285395f6f8d5ea80adef8c076f1",
        "gas": "0x110dc",
        "value": "0x0",
        "input": "0x36649f6a00000000000000000000000055978b20a4915069fc9fb6f6304a1a2922650a5e0000000000000000000000000000000000000000000000000000000000000001",
        "nonce": "0x1d",
        "chainId": "0xaa36a7"
      },
      "additionalContracts": [],
      "isFixedGasLimit": false
    },
    {
      "hash": "0x27981adacf7516da05db43a71992c2143482a9215192f24fd439570851e766c5",
      "transactionType": "CALL",
      "contractName": "InstitutionalAuditHistory",
      "contractAddress": "0xe8e0e4f795a1a285395f6f8d5ea80adef8c076f1",
      "function": "setLoggerAuthorization(address,bool)",
      "arguments": [
        "0xe23Fc6C514B414925db74100d90ddA1421A99ed9",
        "true"
      ],
      "transaction": {
        "from": "0x6bdf6d887038ab97957c2f57d05edd0eb338589a",
        "to": "0xe8e0e4f795a1a285395f6f8d5ea80adef8c076f1",
        "gas": "0x101a3",
        "value": "0x0",
        "input": "0x36649f6a000000000000000000000000e23fc6c514b414925db74100d90dda1421a99ed90000000000000000000000000000000000000000000000000000000000000001",
        "nonce": "0x1e",
        "chainId": "0xaa36a7"
      },
      "additionalContracts": [],
      "isFixedGasLimit": false
    },
    {
      "hash": "0xde22f606bc002a9ce3fbff4ff7c1f6bb38bb9c6ddcf69d09b769eb95ff5197d7",
      "transactionType": "CALL",
      "contractName": "InstitutionalAuditHistory",
      "contractAddress": "0xe8e0e4f795a1a285395f6f8d5ea80adef8c076f1",
      "function": "setLoggerAuthorization(address,bool)",
      "arguments": [
        "0x4C7071d4d892Cb994A3912B9239E44eB992fb4d0",
        "true"
      ],
      "transaction": {
        "from": "0x6bdf6d887038ab97957c2f57d05edd0eb338589a",
        "to": "0xe8e0e4f795a1a285395f6f8d5ea80adef8c076f1",
        "gas": "0x110dc",
        "value": "0x0",
        "input": "0x36649f6a0000000000000000000000004c7071d4d892cb994a3912b9239e44eb992fb4d00000000000000000000000000000000000000000000000000000000000000001",
        "nonce": "0x1f",
        "chainId": "0xaa36a7"
      },
      "additionalContracts": [],
      "isFixedGasLimit": false
    },
    {
      "hash": "0x0923ba69fe68988e607344b6258d23e50d3fd788f7bbff70bf8d222ad5c76439",
      "transactionType": "CALL",
      "contractName": "InstitutionalAuditHistory",
      "contractAddress": "0xe8e0e4f795a1a285395f6f8d5ea80adef8c076f1",
      "function": "setLoggerAuthorization(address,bool)",
      "arguments": [
        "0x598955f01A137CE6982b3Df84E573A5ec7eC40CD",
        "true"
      ],
      "transaction": {
        "from": "0x6bdf6d887038ab97957c2f57d05edd0eb338589a",
        "to": "0xe8e0e4f795a1a285395f6f8d5ea80adef8c076f1",
        "gas": "0x110dc",
        "value": "0x0",
        "input": "0x36649f6a000000000000000000000000598955f01a137ce6982b3df84e573a5ec7ec40cd0000000000000000000000000000000000000000000000000000000000000001",
        "nonce": "0x20",
        "chainId": "0xaa36a7"
      },
      "additionalContracts": [],
      "isFixedGasLimit": false
    },
    {
      "hash": "0xa0e4030625d954f8ead4a53a77d195d23783fe17272cbc07e6c9b36e5a278970",
      "transactionType": "CALL",
      "contractName": "InstitutionalAuditHistory",
      "contractAddress": "0xe8e0e4f795a1a285395f6f8d5ea80adef8c076f1",
      "function": "setLoggerAuthorization(address,bool)",
      "arguments": [
        "0x16a04788681BeeEDCE19AfDA5757bee0fBf4CE6e",
        "true"
      ],
      "transaction": {
        "from": "0x6bdf6d887038ab97957c2f57d05edd0eb338589a",
        "to": "0xe8e0e4f795a1a285395f6f8d5ea80adef8c076f1",
        "gas": "0x110dc",
        "value": "0x0",
        "input": "0x36649f6a00000000000000000000000016a04788681beeedce19afda5757bee0fbf4ce6e0000000000000000000000000000000000000000000000000000000000000001",
        "nonce": "0x21",
        "chainId": "0xaa36a7"
      },
      "additionalContracts": [],
      "isFixedGasLimit": false
    },
    {
      "hash": "0x7a99c539647fbe1b5c8142d86dbf493346fefcbe94e8f95f50a403e8ec14c488",
      "transactionType": "CALL",
      "contractName": "InstitutionalAuditHistory",
      "contractAddress": "0xe8e0e4f795a1a285395f6f8d5ea80adef8c076f1",
      "function": "setLoggerAuthorization(address,bool)",
      "arguments": [
        "0x0800Dc1015585F8a78b7D386F976C2046AC27846",
        "true"
      ],
      "transaction": {
        "from": "0x6bdf6d887038ab97957c2f57d05edd0eb338589a",
        "to": "0xe8e0e4f795a1a285395f6f8d5ea80adef8c076f1",
        "gas": "0x101a3",
        "value": "0x0",
        "input": "0x36649f6a0000000000000000000000000800dc1015585f8a78b7d386f976c2046ac278460000000000000000000000000000000000000000000000000000000000000001",
        "nonce": "0x22",
        "chainId": "0xaa36a7"
      },
      "additionalContracts": [],
      "isFixedGasLimit": false
    },
    {
      "hash": "0x122d0d3e84028ad5fdc59ac6a86c2e9d668025d0f80da307baee10dd15188e2d",
      "transactionType": "CALL",
      "contractName": "InstitutionalAuditHistory",
      "contractAddress": "0xe8e0e4f795a1a285395f6f8d5ea80adef8c076f1",
      "function": "setLoggerAuthorization(address,bool)",
      "arguments": [
        "0x2a24d7cf4DA1588BF6cE57cf7c9E31dEDaC40D61",
        "true"
      ],
      "transaction": {
        "from": "0x6bdf6d887038ab97957c2f57d05edd0eb338589a",
        "to": "0xe8e0e4f795a1a285395f6f8d5ea80adef8c076f1",
        "gas": "0x110dc",
        "value": "0x0",
        "input": "0x36649f6a0000000000000000000000002a24d7cf4da1588bf6ce57cf7c9e31dedac40d610000000000000000000000000000000000000000000000000000000000000001",
        "nonce": "0x23",
        "chainId": "0xaa36a7"
      },
      "additionalContracts": [],
      "isFixedGasLimit": false
    },
    {
      "hash": "0x1757e2289a541c323827e349793c67f4175baf998848c9b49074ed6d972c7f59",
      "transactionType": "CALL",
      "contractName": "InstitutionalAuditHistory",
      "contractAddress": "0xe8e0e4f795a1a285395f6f8d5ea80adef8c076f1",
      "function": "setLoggerAuthorization(address,bool)",
      "arguments": [
        "0x1Fa2Bf7f5BfA6eF235773BEDA019a63719b5c583",
        "true"
      ],
      "transaction": {
        "from": "0x6bdf6d887038ab97957c2f57d05edd0eb338589a",
        "to": "0xe8e0e4f795a1a285395f6f8d5ea80adef8c076f1",
        "gas": "0x110dc",
        "value": "0x0",
        "input": "0x36649f6a0000000000000000000000001fa2bf7f5bfa6ef235773beda019a63719b5c5830000000000000000000000000000000000000000000000000000000000000001",
        "nonce": "0x24",
        "chainId": "0xaa36a7"
      },
      "additionalContracts": [],
      "isFixedGasLimit": false
    }
  ],
  "receipts": [
    {
      "status": "0x1",
      "cumulativeGasUsed": "0xf093b3",
      "logs": [],
      "logsBloom": "0x00000000000000000000000000000000000000000000000000000000000000000000000000000000000000000000000000000000000000000000000000000000000000000000000000000000000000000000000000000000000000000000000000000000000000000000000000000000000000000000000000000000000000000000000000000000000000000000000000000000000000000000000000000000000000000000000000000000000000000000000000000000000000000000000000000000000000000000000000000000000000000000000000000000000000000000000000000000000000000000000000000000000000000000000000000000",
      "type": "0x2",
      "transactionHash": "0xc6fbba886d58d62f47713634df57594b3be5fb853e67455e5ff3ee71a9968161",
      "transactionIndex": "0x5d",
      "blockHash": "0xd6849d27defc8257113287e8cefe2acd1b04f6fe2d600785a6e4f625d6e1dd87",
      "blockNumber": "0xabfdc4",
      "gasUsed": "0x6794e",
      "effectiveGasPrice": "0x3daf5629",
      "from": "0x6bdf6d887038ab97957c2f57d05edd0eb338589a",
      "to": null,
      "contractAddress": "0xe8e0e4f795a1a285395f6f8d5ea80adef8c076f1"
    },
    {
      "status": "0x1",
      "cumulativeGasUsed": "0xfd878e",
      "logs": [],
      "logsBloom": "0x00000000000000000000000000000000000000000000000000000000000000000000000000000000000000000000000000000000000000000000000000000000000000000000000000000000000000000000000000000000000000000000000000000000000000000000000000000000000000000000000000000000000000000000000000000000000000000000000000000000000000000000000000000000000000000000000000000000000000000000000000000000000000000000000000000000000000000000000000000000000000000000000000000000000000000000000000000000000000000000000000000000000000000000000000000000",
      "type": "0x2",
      "transactionHash": "0xc478135c6342ee721681a929c02c5b3fdd221b2a0c92fba5ed5c6c9e24fb48b7",
      "transactionIndex": "0x5e",
      "blockHash": "0xd6849d27defc8257113287e8cefe2acd1b04f6fe2d600785a6e4f625d6e1dd87",
      "blockNumber": "0xabfdc4",
      "gasUsed": "0xcf3db",
      "effectiveGasPrice": "0x3daf5629",
      "from": "0x6bdf6d887038ab97957c2f57d05edd0eb338589a",
      "to": null,
      "contractAddress": "0xd0ba898e929d319cf9b287fcb2710b84de9582cc"
    },
    {
      "status": "0x1",
      "cumulativeGasUsed": "0x1068a6d",
      "logs": [],
      "logsBloom": "0x00000000000000000000000000000000000000000000000000000000000000000000000000000000000000000000000000000000000000000000000000000000000000000000000000000000000000000000000000000000000000000000000000000000000000000000000000000000000000000000000000000000000000000000000000000000000000000000000000000000000000000000000000000000000000000000000000000000000000000000000000000000000000000000000000000000000000000000000000000000000000000000000000000000000000000000000000000000000000000000000000000000000000000000000000000000",
      "type": "0x2",
      "transactionHash": "0x93c6d7a63dbc0b3118622a9f5c45021329b05f30f4a52551a6e34e130e79eeb9",
      "transactionIndex": "0x5f",
      "blockHash": "0xd6849d27defc8257113287e8cefe2acd1b04f6fe2d600785a6e4f625d6e1dd87",
      "blockNumber": "0xabfdc4",
      "gasUsed": "0x902df",
      "effectiveGasPrice": "0x3daf5629",
      "from": "0x6bdf6d887038ab97957c2f57d05edd0eb338589a",
      "to": null,
      "contractAddress": "0xa677ae0b7a52023b5f292ce04f6344cbc4a35dbf"
    },
    {
      "status": "0x1",
      "cumulativeGasUsed": "0x11005dc",
      "logs": [],
      "logsBloom": "0x00000000000000000000000000000000000000000000000000000000000000000000000000000000000000000000000000000000000000000000000000000000000000000000000000000000000000000000000000000000000000000000000000000000000000000000000000000000000000000000000000000000000000000000000000000000000000000000000000000000000000000000000000000000000000000000000000000000000000000000000000000000000000000000000000000000000000000000000000000000000000000000000000000000000000000000000000000000000000000000000000000000000000000000000000000000",
      "type": "0x2",
      "transactionHash": "0x27607b7b7ea4d3be177165799cffa7d71fd1ee92f5a8b1e0584a23312695cf46",
      "transactionIndex": "0x60",
      "blockHash": "0xd6849d27defc8257113287e8cefe2acd1b04f6fe2d600785a6e4f625d6e1dd87",
      "blockNumber": "0xabfdc4",
      "gasUsed": "0x97b6f",
      "effectiveGasPrice": "0x3daf5629",
      "from": "0x6bdf6d887038ab97957c2f57d05edd0eb338589a",
      "to": null,
      "contractAddress": "0x7e0c8d03218daaa408c16c3e580dad36fc0fc4af"
    },
    {
      "status": "0x1",
      "cumulativeGasUsed": "0x119adf9",
      "logs": [],
      "logsBloom": "0x00000000000000000000000000000000000000000000000000000000000000000000000000000000000000000000000000000000000000000000000000000000000000000000000000000000000000000000000000000000000000000000000000000000000000000000000000000000000000000000000000000000000000000000000000000000000000000000000000000000000000000000000000000000000000000000000000000000000000000000000000000000000000000000000000000000000000000000000000000000000000000000000000000000000000000000000000000000000000000000000000000000000000000000000000000000",
      "type": "0x2",
      "transactionHash": "0x2a553f390ebd54dad14e27661b27e83db8d371c5584cf7493fdaaeb41a70666b",
      "transactionIndex": "0x61",
      "blockHash": "0xd6849d27defc8257113287e8cefe2acd1b04f6fe2d600785a6e4f625d6e1dd87",
      "blockNumber": "0xabfdc4",
      "gasUsed": "0x9a81d",
      "effectiveGasPrice": "0x3daf5629",
      "from": "0x6bdf6d887038ab97957c2f57d05edd0eb338589a",
      "to": null,
      "contractAddress": "0x55978b20a4915069fc9fb6f6304a1a2922650a5e"
    },
    {
      "status": "0x1",
      "cumulativeGasUsed": "0x12211a7",
      "logs": [],
      "logsBloom": "0x00000000000000000000000000000000000000000000000000000000000000000000000000000000000000000000000000000000000000000000000000000000000000000000000000000000000000000000000000000000000000000000000000000000000000000000000000000000000000000000000000000000000000000000000000000000000000000000000000000000000000000000000000000000000000000000000000000000000000000000000000000000000000000000000000000000000000000000000000000000000000000000000000000000000000000000000000000000000000000000000000000000000000000000000000000000",
      "type": "0x2",
      "transactionHash": "0x1fcf4362ae2337ef56d93ba1194342ede9847d3b3a6e5affa78f481865871104",
      "transactionIndex": "0x62",
      "blockHash": "0xd6849d27defc8257113287e8cefe2acd1b04f6fe2d600785a6e4f625d6e1dd87",
      "blockNumber": "0xabfdc4",
      "gasUsed": "0x863ae",
      "effectiveGasPrice": "0x3daf5629",
      "from": "0x6bdf6d887038ab97957c2f57d05edd0eb338589a",
      "to": null,
      "contractAddress": "0xe23fc6c514b414925db74100d90dda1421a99ed9"
    },
    {
      "status": "0x1",
      "cumulativeGasUsed": "0x1286d1c",
      "logs": [],
      "logsBloom": "0x00000000000000000000000000000000000000000000000000000000000000000000000000000000000000000000000000000000000000000000000000000000000000000000000000000000000000000000000000000000000000000000000000000000000000000000000000000000000000000000000000000000000000000000000000000000000000000000000000000000000000000000000000000000000000000000000000000000000000000000000000000000000000000000000000000000000000000000000000000000000000000000000000000000000000000000000000000000000000000000000000000000000000000000000000000000",
      "type": "0x2",
      "transactionHash": "0xd39cc221ac704e4963ada31f001f3de84ca8dc3ff09fdcadf469a44cd206d4cd",
      "transactionIndex": "0x63",
      "blockHash": "0xd6849d27defc8257113287e8cefe2acd1b04f6fe2d600785a6e4f625d6e1dd87",
      "blockNumber": "0xabfdc4",
      "gasUsed": "0x65b75",
      "effectiveGasPrice": "0x3daf5629",
      "from": "0x6bdf6d887038ab97957c2f57d05edd0eb338589a",
      "to": null,
      "contractAddress": "0x4c7071d4d892cb994a3912b9239e44eb992fb4d0"
    },
    {
      "status": "0x1",
      "cumulativeGasUsed": "0x12f92e1",
      "logs": [],
      "logsBloom": "0x00000000000000000000000000000000000000000000000000000000000000000000000000000000000000000000000000000000000000000000000000000000000000000000000000000000000000000000000000000000000000000000000000000000000000000000000000000000000000000000000000000000000000000000000000000000000000000000000000000000000000000000000000000000000000000000000000000000000000000000000000000000000000000000000000000000000000000000000000000000000000000000000000000000000000000000000000000000000000000000000000000000000000000000000000000000",
      "type": "0x2",
      "transactionHash": "0xe1f2ef14951cb4b3939da08f88b4326cfce51893236af1cf94870309b99c55f0",
      "transactionIndex": "0x64",
      "blockHash": "0xd6849d27defc8257113287e8cefe2acd1b04f6fe2d600785a6e4f625d6e1dd87",
      "blockNumber": "0xabfdc4",
      "gasUsed": "0x725c5",
      "effectiveGasPrice": "0x3daf5629",
      "from": "0x6bdf6d887038ab97957c2f57d05edd0eb338589a",
      "to": null,
      "contractAddress": "0x598955f01a137ce6982b3df84e573a5ec7ec40cd"
    },
    {
      "status": "0x1",
      "cumulativeGasUsed": "0x135717f",
      "logs": [],
      "logsBloom": "0x00000000000000000000000000000000000000000000000000000000000000000000000000000000000000000000000000000000000000000000000000000000000000000000000000000000000000000000000000000000000000000000000000000000000000000000000000000000000000000000000000000000000000000000000000000000000000000000000000000000000000000000000000000000000000000000000000000000000000000000000000000000000000000000000000000000000000000000000000000000000000000000000000000000000000000000000000000000000000000000000000000000000000000000000000000000",
      "type": "0x2",
      "transactionHash": "0xbd0ad95a1b875644bdc0787ffe7056aa0760ccb3b129596efda605f661335334",
      "transactionIndex": "0x65",
      "blockHash": "0xd6849d27defc8257113287e8cefe2acd1b04f6fe2d600785a6e4f625d6e1dd87",
      "blockNumber": "0xabfdc4",
      "gasUsed": "0x5de9e",
      "effectiveGasPrice": "0x3daf5629",
      "from": "0x6bdf6d887038ab97957c2f57d05edd0eb338589a",
      "to": null,
      "contractAddress": "0x16a04788681beeedce19afda5757bee0fbf4ce6e"
    },
    {
      "status": "0x1",
      "cumulativeGasUsed": "0x13f112c",
      "logs": [],
      "logsBloom": "0x00000000000000000000000000000000000000000000000000000000000000000000000000000000000000000000000000000000000000000000000000000000000000000000000000000000000000000000000000000000000000000000000000000000000000000000000000000000000000000000000000000000000000000000000000000000000000000000000000000000000000000000000000000000000000000000000000000000000000000000000000000000000000000000000000000000000000000000000000000000000000000000000000000000000000000000000000000000000000000000000000000000000000000000000000000000",
      "type": "0x2",
      "transactionHash": "0xc71d1c8148ca93c43d5a5c573ac20b02c144c2b223f6b2546aff11e851b388b4",
      "transactionIndex": "0x66",
      "blockHash": "0xd6849d27defc8257113287e8cefe2acd1b04f6fe2d600785a6e4f625d6e1dd87",
      "blockNumber": "0xabfdc4",
      "gasUsed": "0x99fad",
      "effectiveGasPrice": "0x3daf5629",
      "from": "0x6bdf6d887038ab97957c2f57d05edd0eb338589a",
      "to": null,
      "contractAddress": "0x0800dc1015585f8a78b7d386f976c2046ac27846"
    },
    {
      "status": "0x1",
      "cumulativeGasUsed": "0x1464093",
      "logs": [],
      "logsBloom": "0x00000000000000000000000000000000000000000000000000000000000000000000000000000000000000000000000000000000000000000000000000000000000000000000000000000000000000000000000000000000000000000000000000000000000000000000000000000000000000000000000000000000000000000000000000000000000000000000000000000000000000000000000000000000000000000000000000000000000000000000000000000000000000000000000000000000000000000000000000000000000000000000000000000000000000000000000000000000000000000000000000000000000000000000000000000000",
      "type": "0x2",
      "transactionHash": "0xa1f7374b7f8c18ec6119abbf51b363f4e9cc91dd26c8bbdb44dcb71700370839",
      "transactionIndex": "0x67",
      "blockHash": "0xd6849d27defc8257113287e8cefe2acd1b04f6fe2d600785a6e4f625d6e1dd87",
      "blockNumber": "0xabfdc4",
      "gasUsed": "0x72f67",
      "effectiveGasPrice": "0x3daf5629",
      "from": "0x6bdf6d887038ab97957c2f57d05edd0eb338589a",
      "to": null,
      "contractAddress": "0x2a24d7cf4da1588bf6ce57cf7c9e31dedac40d61"
    },
    {
      "status": "0x1",
      "cumulativeGasUsed": "0x14ff4b2",
      "logs": [],
      "logsBloom": "0x00000000000000000000000000000000000000000000000000000000000000000000000000000000000000000000000000000000000000000000000000000000000000000000000000000000000000000000000000000000000000000000000000000000000000000000000000000000000000000000000000000000000000000000000000000000000000000000000000000000000000000000000000000000000000000000000000000000000000000000000000000000000000000000000000000000000000000000000000000000000000000000000000000000000000000000000000000000000000000000000000000000000000000000000000000000",
      "type": "0x2",
      "transactionHash": "0x75fbc52967b2ec1a72a27d8cc94ca15e275a6afd695b1d6a5390ef44d5f7e93e",
      "transactionIndex": "0x68",
      "blockHash": "0xd6849d27defc8257113287e8cefe2acd1b04f6fe2d600785a6e4f625d6e1dd87",
      "blockNumber": "0xabfdc4",
      "gasUsed": "0x9b41f",
      "effectiveGasPrice": "0x3daf5629",
      "from": "0x6bdf6d887038ab97957c2f57d05edd0eb338589a",
      "to": null,
      "contractAddress": "0x1fa2bf7f5bfa6ef235773beda019a63719b5c583"
    },
    {
      "status": "0x1",
      "cumulativeGasUsed": "0x150a8f8",
      "logs": [],
      "logsBloom": "0x00000000000000000000000000000000000000000000000000000000000000000000000000000000000000000000000000000000000000000000000000000000000000000000000000000000000000000000000000000000000000000000000000000000000000000000000000000000000000000000000000000000000000000000000000000000000000000000000000000000000000000000000000000000000000000000000000000000000000000000000000000000000000000000000000000000000000000000000000000000000000000000000000000000000000000000000000000000000000000000000000000000000000000000000000000000",
      "type": "0x2",
      "transactionHash": "0x71957ee0b0d8ce4b23aedd9ee4e897acb0f3808854e06347dddb2fd1a9828c33",
      "transactionIndex": "0x69",
      "blockHash": "0xd6849d27defc8257113287e8cefe2acd1b04f6fe2d600785a6e4f625d6e1dd87",
      "blockNumber": "0xabfdc4",
      "gasUsed": "0xb446",
      "effectiveGasPrice": "0x3daf5629",
      "from": "0x6bdf6d887038ab97957c2f57d05edd0eb338589a",
      "to": "0xd0ba898e929d319cf9b287fcb2710b84de9582cc",
      "contractAddress": null
    },
    {
      "status": "0x1",
      "cumulativeGasUsed": "0x1515d28",
      "logs": [],
      "logsBloom": "0x00000000000000000000000000000000000000000000000000000000000000000000000000000000000000000000000000000000000000000000000000000000000000000000000000000000000000000000000000000000000000000000000000000000000000000000000000000000000000000000000000000000000000000000000000000000000000000000000000000000000000000000000000000000000000000000000000000000000000000000000000000000000000000000000000000000000000000000000000000000000000000000000000000000000000000000000000000000000000000000000000000000000000000000000000000000",
      "type": "0x2",
      "transactionHash": "0xf33bb21f9cfbd8c89f833ca7ac3341e467da6e109a6d86070b46c00573125ab0",
      "transactionIndex": "0x6a",
      "blockHash": "0xd6849d27defc8257113287e8cefe2acd1b04f6fe2d600785a6e4f625d6e1dd87",
      "blockNumber": "0xabfdc4",
      "gasUsed": "0xb430",
      "effectiveGasPrice": "0x3daf5629",
      "from": "0x6bdf6d887038ab97957c2f57d05edd0eb338589a",
      "to": "0xa677ae0b7a52023b5f292ce04f6344cbc4a35dbf",
      "contractAddress": null
    },
    {
      "status": "0x1",
      "cumulativeGasUsed": "0x152111f",
      "logs": [],
      "logsBloom": "0x00000000000000000000000000000000000000000000000000000000000000000000000000000000000000000000000000000000000000000000000000000000000000000000000000000000000000000000000000000000000000000000000000000000000000000000000000000000000000000000000000000000000000000000000000000000000000000000000000000000000000000000000000000000000000000000000000000000000000000000000000000000000000000000000000000000000000000000000000000000000000000000000000000000000000000000000000000000000000000000000000000000000000000000000000000000",
      "type": "0x2",
      "transactionHash": "0x4f89236f3976c2f6d932076a97e3ca5b494265ecaf25736ce12b7344b0d97249",
      "transactionIndex": "0x6b",
      "blockHash": "0xd6849d27defc8257113287e8cefe2acd1b04f6fe2d600785a6e4f625d6e1dd87",
      "blockNumber": "0xabfdc4",
      "gasUsed": "0xb3f7",
      "effectiveGasPrice": "0x3daf5629",
      "from": "0x6bdf6d887038ab97957c2f57d05edd0eb338589a",
      "to": "0x7e0c8d03218daaa408c16c3e580dad36fc0fc4af",
      "contractAddress": null
    },
    {
      "status": "0x1",
      "cumulativeGasUsed": "0x152c539",
      "logs": [],
      "logsBloom": "0x00000000000000000000000000000000000000000000000000000000000000000000000000000000000000000000000000000000000000000000000000000000000000000000000000000000000000000000000000000000000000000000000000000000000000000000000000000000000000000000000000000000000000000000000000000000000000000000000000000000000000000000000000000000000000000000000000000000000000000000000000000000000000000000000000000000000000000000000000000000000000000000000000000000000000000000000000000000000000000000000000000000000000000000000000000000",
      "type": "0x2",
      "transactionHash": "0xad8c97f3e39712092e9151efc166f04d4b339b11e2ebc9e8d78a92dcc5112ee2",
      "transactionIndex": "0x6c",
      "blockHash": "0xd6849d27defc8257113287e8cefe2acd1b04f6fe2d600785a6e4f625d6e1dd87",
      "blockNumber": "0xabfdc4",
      "gasUsed": "0xb41a",
      "effectiveGasPrice": "0x3daf5629",
      "from": "0x6bdf6d887038ab97957c2f57d05edd0eb338589a",
      "to": "0x55978b20a4915069fc9fb6f6304a1a2922650a5e",
      "contractAddress": null
    },
    {
      "status": "0x1",
      "cumulativeGasUsed": "0xb8e239",
      "logs": [],
      "logsBloom": "0x00000000000000000000000000000000000000000000000000000000000000000000000000000000000000000000000000000000000000000000000000000000000000000000000000000000000000000000000000000000000000000000000000000000000000000000000000000000000000000000000000000000000000000000000000000000000000000000000000000000000000000000000000000000000000000000000000000000000000000000000000000000000000000000000000000000000000000000000000000000000000000000000000000000000000000000000000000000000000000000000000000000000000000000000000000000",
      "type": "0x2",
      "transactionHash": "0x75a80002d61fefee17f7639877d83fd1dab59a743e3442fe9b294296d2924170",
      "transactionIndex": "0x3f",
      "blockHash": "0x7a4f98e96c2ae7bdba6f5e94656f3eb0a28bd74ca5979a3cf0b391010c178d44",
      "blockNumber": "0xabfdc6",
      "gasUsed": "0xb3f7",
      "effectiveGasPrice": "0x3bb155fe",
      "from": "0x6bdf6d887038ab97957c2f57d05edd0eb338589a",
      "to": "0xe23fc6c514b414925db74100d90dda1421a99ed9",
      "contractAddress": null
    },
    {
      "status": "0x1",
      "cumulativeGasUsed": "0xb99653",
      "logs": [],
      "logsBloom": "0x00000000000000000000000000000000000000000000000000000000000000000000000000000000000000000000000000000000000000000000000000000000000000000000000000000000000000000000000000000000000000000000000000000000000000000000000000000000000000000000000000000000000000000000000000000000000000000000000000000000000000000000000000000000000000000000000000000000000000000000000000000000000000000000000000000000000000000000000000000000000000000000000000000000000000000000000000000000000000000000000000000000000000000000000000000000",
      "type": "0x2",
      "transactionHash": "0x0923ba69fe68988e607344b6258d23e50d3fd788f7bbff70bf8d222ad5c76439",
      "transactionIndex": "0x40",
      "blockHash": "0x7a4f98e96c2ae7bdba6f5e94656f3eb0a28bd74ca5979a3cf0b391010c178d44",
      "blockNumber": "0xabfdc6",
      "gasUsed": "0xb41a",
      "effectiveGasPrice": "0x3bb155fe",
      "from": "0x6bdf6d887038ab97957c2f57d05edd0eb338589a",
      "to": "0x4c7071d4d892cb994a3912b9239e44eb992fb4d0",
      "contractAddress": null
    },
    {
      "status": "0x1",
      "cumulativeGasUsed": "0xba4a83",
      "logs": [],
      "logsBloom": "0x00000000000000000000000000000000000000000000000000000000000000000000000000000000000000000000000000000000000000000000000000000000000000000000000000000000000000000000000000000000000000000000000000000000000000000000000000000000000000000000000000000000000000000000000000000000000000000000000000000000000000000000000000000000000000000000000000000000000000000000000000000000000000000000000000000000000000000000000000000000000000000000000000000000000000000000000000000000000000000000000000000000000000000000000000000000",
      "type": "0x2",
      "transactionHash": "0x2257239be5dc6ef6e8a04f36a8e665d635f9a6819b3edf8b92fb65ef0aa49c65",
      "transactionIndex": "0x41",
      "blockHash": "0x7a4f98e96c2ae7bdba6f5e94656f3eb0a28bd74ca5979a3cf0b391010c178d44",
      "blockNumber": "0xabfdc6",
      "gasUsed": "0xb430",
      "effectiveGasPrice": "0x3bb155fe",
      "from": "0x6bdf6d887038ab97957c2f57d05edd0eb338589a",
      "to": "0x598955f01a137ce6982b3df84e573a5ec7ec40cd",
      "contractAddress": null
    },
    {
      "status": "0x1",
      "cumulativeGasUsed": "0xbafeb3",
      "logs": [],
      "logsBloom": "0x00000000000000000000000000000000000000000000000000000000000000000000000000000000000000000000000000000000000000000000000000000000000000000000000000000000000000000000000000000000000000000000000000000000000000000000000000000000000000000000000000000000000000000000000000000000000000000000000000000000000000000000000000000000000000000000000000000000000000000000000000000000000000000000000000000000000000000000000000000000000000000000000000000000000000000000000000000000000000000000000000000000000000000000000000000000",
      "type": "0x2",
      "transactionHash": "0x4885cda732f66c5f3f3e2e239919687412320d783a4564be10830df4018b4d71",
      "transactionIndex": "0x42",
      "blockHash": "0x7a4f98e96c2ae7bdba6f5e94656f3eb0a28bd74ca5979a3cf0b391010c178d44",
      "blockNumber": "0xabfdc6",
      "gasUsed": "0xb430",
      "effectiveGasPrice": "0x3bb155fe",
      "from": "0x6bdf6d887038ab97957c2f57d05edd0eb338589a",
      "to": "0x16a04788681beeedce19afda5757bee0fbf4ce6e",
      "contractAddress": null
    },
    {
      "status": "0x1",
      "cumulativeGasUsed": "0xbbb2cd",
      "logs": [],
      "logsBloom": "0x00000000000000000000000000000000000000000000000000000000000000000000000000000000000000000000000000000000000000000000000000000000000000000000000000000000000000000000000000000000000000000000000000000000000000000000000000000000000000000000000000000000000000000000000000000000000000000000000000000000000000000000000000000000000000000000000000000000000000000000000000000000000000000000000000000000000000000000000000000000000000000000000000000000000000000000000000000000000000000000000000000000000000000000000000000000",
      "type": "0x2",
      "transactionHash": "0x27981adacf7516da05db43a71992c2143482a9215192f24fd439570851e766c5",
      "transactionIndex": "0x43",
      "blockHash": "0x7a4f98e96c2ae7bdba6f5e94656f3eb0a28bd74ca5979a3cf0b391010c178d44",
      "blockNumber": "0xabfdc6",
      "gasUsed": "0xb41a",
      "effectiveGasPrice": "0x3bb155fe",
      "from": "0x6bdf6d887038ab97957c2f57d05edd0eb338589a",
      "to": "0x0800dc1015585f8a78b7d386f976c2046ac27846",
      "contractAddress": null
    },
    {
      "status": "0x1",
      "cumulativeGasUsed": "0xbc66e7",
      "logs": [],
      "logsBloom": "0x00000000000000000000000000000000000000000000000000000000000000000000000000000000000000000000000000000000000000000000000000000000000000000000000000000000000000000000000000000000000000000000000000000000000000000000000000000000000000000000000000000000000000000000000000000000000000000000000000000000000000000000000000000000000000000000000000000000000000000000000000000000000000000000000000000000000000000000000000000000000000000000000000000000000000000000000000000000000000000000000000000000000000000000000000000000",
      "type": "0x2",
      "transactionHash": "0x88effd7d815cb12fd5a8914e2339e9b31e52107c76264a3f676692b10b94bc63",
      "transactionIndex": "0x44",
      "blockHash": "0x7a4f98e96c2ae7bdba6f5e94656f3eb0a28bd74ca5979a3cf0b391010c178d44",
      "blockNumber": "0xabfdc6",
      "gasUsed": "0xb41a",
      "effectiveGasPrice": "0x3bb155fe",
      "from": "0x6bdf6d887038ab97957c2f57d05edd0eb338589a",
      "to": "0x2a24d7cf4da1588bf6ce57cf7c9e31dedac40d61",
      "contractAddress": null
    },
    {
      "status": "0x1",
      "cumulativeGasUsed": "0xbd1b01",
      "logs": [],
      "logsBloom": "0x00000000000000000000000000000000000000000000000000000000000000000000000000000000000000000000000000000000000000000000000000000000000000000000000000000000000000000000000000000000000000000000000000000000000000000000000000000000000000000000000000000000000000000000000000000000000000000000000000000000000000000000000000000000000000000000000000000000000000000000000000000000000000000000000000000000000000000000000000000000000000000000000000000000000000000000000000000000000000000000000000000000000000000000000000000000",
      "type": "0x2",
      "transactionHash": "0x7a99c539647fbe1b5c8142d86dbf493346fefcbe94e8f95f50a403e8ec14c488",
      "transactionIndex": "0x45",
      "blockHash": "0x7a4f98e96c2ae7bdba6f5e94656f3eb0a28bd74ca5979a3cf0b391010c178d44",
      "blockNumber": "0xabfdc6",
      "gasUsed": "0xb41a",
      "effectiveGasPrice": "0x3bb155fe",
      "from": "0x6bdf6d887038ab97957c2f57d05edd0eb338589a",
      "to": "0x1fa2bf7f5bfa6ef235773beda019a63719b5c583",
      "contractAddress": null
    },
    {
      "status": "0x1",
      "cumulativeGasUsed": "0xbdd594",
      "logs": [
        {
          "address": "0xe8e0e4f795a1a285395f6f8d5ea80adef8c076f1",
          "topics": [
            "0x9a930a25698f6b5bbca85e080f7fa61e9f190b339cc1b8e151c0a4fb404b1245",
            "0x000000000000000000000000d0ba898e929d319cf9b287fcb2710b84de9582cc"
          ],
          "data": "0x0000000000000000000000000000000000000000000000000000000000000001",
          "blockHash": "0x7a4f98e96c2ae7bdba6f5e94656f3eb0a28bd74ca5979a3cf0b391010c178d44",
          "blockNumber": "0xabfdc6",
          "blockTimestamp": "0x6a5652d4",
          "transactionHash": "0xdfeec29414365129de01af3ff7b3fcadf6281dfb04955dfb919426b6e147437c",
          "transactionIndex": "0x46",
          "logIndex": "0x21e",
          "removed": false
        }
      ],
      "logsBloom": "0x00000000000000000001000000000000000000000000000000000000000000000000000000000000000040000000000000000000000040000000000000000000000000000000000000000000000000000000000000000000000000000000000000000000000000000000000000000000000000000000000000000000000000000000000000000000800000000000000000000010000000000100000000200000000000000000000000000000000000000000000000000000000000000000000000000000000000000200000000000000000000000000000000000000000000008000000000000000000000000000000000000000000000000000000000000000",
      "type": "0x2",
      "transactionHash": "0xdfeec29414365129de01af3ff7b3fcadf6281dfb04955dfb919426b6e147437c",
      "transactionIndex": "0x46",
      "blockHash": "0x7a4f98e96c2ae7bdba6f5e94656f3eb0a28bd74ca5979a3cf0b391010c178d44",
      "blockNumber": "0xabfdc6",
      "gasUsed": "0xba93",
      "effectiveGasPrice": "0x3bb155fe",
      "from": "0x6bdf6d887038ab97957c2f57d05edd0eb338589a",
      "to": "0xe8e0e4f795a1a285395f6f8d5ea80adef8c076f1",
      "contractAddress": null
    },
    {
      "status": "0x1",
      "cumulativeGasUsed": "0xbe9027",
      "logs": [
        {
          "address": "0xe8e0e4f795a1a285395f6f8d5ea80adef8c076f1",
          "topics": [
            "0x9a930a25698f6b5bbca85e080f7fa61e9f190b339cc1b8e151c0a4fb404b1245",
            "0x000000000000000000000000a677ae0b7a52023b5f292ce04f6344cbc4a35dbf"
          ],
          "data": "0x0000000000000000000000000000000000000000000000000000000000000001",
          "blockHash": "0x7a4f98e96c2ae7bdba6f5e94656f3eb0a28bd74ca5979a3cf0b391010c178d44",
          "blockNumber": "0xabfdc6",
          "blockTimestamp": "0x6a5652d4",
          "transactionHash": "0x122d0d3e84028ad5fdc59ac6a86c2e9d668025d0f80da307baee10dd15188e2d",
          "transactionIndex": "0x47",
          "logIndex": "0x21f",
          "removed": false
        }
      ],
      "logsBloom": "0x00000000000000000001000000000000000000000000000000000000000080000000000000000000000040000000000000000000000000000000000000000000000020000000000000000000000000000000000000000000000000000000000000000000000000000000000000000000000000000040000000000000000000000000000000000000000000000000000000000010000000000000000000200000000000000000000000000000000000000000000000000000000000000000000000000000000000000200000000000000000000000000000000000000000000008000000000000000000000000000000000000000000000000000000000000000",
      "type": "0x2",
      "transactionHash": "0x122d0d3e84028ad5fdc59ac6a86c2e9d668025d0f80da307baee10dd15188e2d",
      "transactionIndex": "0x47",
      "blockHash": "0x7a4f98e96c2ae7bdba6f5e94656f3eb0a28bd74ca5979a3cf0b391010c178d44",
      "blockNumber": "0xabfdc6",
      "gasUsed": "0xba93",
      "effectiveGasPrice": "0x3bb155fe",
      "from": "0x6bdf6d887038ab97957c2f57d05edd0eb338589a",
      "to": "0xe8e0e4f795a1a285395f6f8d5ea80adef8c076f1",
      "contractAddress": null
    },
    {
      "status": "0x1",
      "cumulativeGasUsed": "0xbf4aba",
      "logs": [
        {
          "address": "0xe8e0e4f795a1a285395f6f8d5ea80adef8c076f1",
          "topics": [
            "0x9a930a25698f6b5bbca85e080f7fa61e9f190b339cc1b8e151c0a4fb404b1245",
            "0x0000000000000000000000007e0c8d03218daaa408c16c3e580dad36fc0fc4af"
          ],
          "data": "0x0000000000000000000000000000000000000000000000000000000000000001",
          "blockHash": "0x7a4f98e96c2ae7bdba6f5e94656f3eb0a28bd74ca5979a3cf0b391010c178d44",
          "blockNumber": "0xabfdc6",
          "blockTimestamp": "0x6a5652d4",
          "transactionHash": "0x59fbe3a3402ba3803b9d47335f0ba1d731c07235cdb2205552998e51725380d5",
          "transactionIndex": "0x48",
          "logIndex": "0x220",
          "removed": false
        }
      ],
      "logsBloom": "0x00000000000000000001000000000000000000000000000000000000000000000000000000000000000040000000000000000000000000000000000000000000000000000000000000000000000000000000000000000000000000000000000000000000000000004000000000000040000000000000000000000000000000000000000000000000000000000000000000000010000000000000000000200000000000000000000000000000000000000000000000000000000000000000000000000000000000000200000000000000000000000000000000000000000000008010000000000000000000000000000000000000000000000000000000000000",
      "type": "0x2",
      "transactionHash": "0x59fbe3a3402ba3803b9d47335f0ba1d731c07235cdb2205552998e51725380d5",
      "transactionIndex": "0x48",
      "blockHash": "0x7a4f98e96c2ae7bdba6f5e94656f3eb0a28bd74ca5979a3cf0b391010c178d44",
      "blockNumber": "0xabfdc6",
      "gasUsed": "0xba93",
      "effectiveGasPrice": "0x3bb155fe",
      "from": "0x6bdf6d887038ab97957c2f57d05edd0eb338589a",
      "to": "0xe8e0e4f795a1a285395f6f8d5ea80adef8c076f1",
      "contractAddress": null
    },
    {
      "status": "0x1",
      "cumulativeGasUsed": "0xc0054d",
      "logs": [
        {
          "address": "0xe8e0e4f795a1a285395f6f8d5ea80adef8c076f1",
          "topics": [
            "0x9a930a25698f6b5bbca85e080f7fa61e9f190b339cc1b8e151c0a4fb404b1245",
            "0x00000000000000000000000055978b20a4915069fc9fb6f6304a1a2922650a5e"
          ],
          "data": "0x0000000000000000000000000000000000000000000000000000000000000001",
          "blockHash": "0x7a4f98e96c2ae7bdba6f5e94656f3eb0a28bd74ca5979a3cf0b391010c178d44",
          "blockNumber": "0xabfdc6",
          "blockTimestamp": "0x6a5652d4",
          "transactionHash": "0x1757e2289a541c323827e349793c67f4175baf998848c9b49074ed6d972c7f59",
          "transactionIndex": "0x49",
          "logIndex": "0x221",
          "removed": false
        }
      ],
      "logsBloom": "0x00000000800000000001000000000000000000000000000000000000000000000000000000000000000040000000000000000000000000000000000000000000000000000010000000000000000000000000000000000000000000000000000000000000000000000000000000000000000000000000000000000000000000000000000000000000000000000000000000000010000000000000000000200000000000000000000000000000000000000000000000000000000000000000000000000000000000000200000000000000000000000000000000000000000000008000000000000000000000000000000000000000000000000000200000000000",
      "type": "0x2",
      "transactionHash": "0x1757e2289a541c323827e349793c67f4175baf998848c9b49074ed6d972c7f59",
      "transactionIndex": "0x49",
      "blockHash": "0x7a4f98e96c2ae7bdba6f5e94656f3eb0a28bd74ca5979a3cf0b391010c178d44",
      "blockNumber": "0xabfdc6",
      "gasUsed": "0xba93",
      "effectiveGasPrice": "0x3bb155fe",
      "from": "0x6bdf6d887038ab97957c2f57d05edd0eb338589a",
      "to": "0xe8e0e4f795a1a285395f6f8d5ea80adef8c076f1",
      "contractAddress": null
    },
    {
      "status": "0x1",
      "cumulativeGasUsed": "0xc0bfd4",
      "logs": [
        {
          "address": "0xe8e0e4f795a1a285395f6f8d5ea80adef8c076f1",
          "topics": [
            "0x9a930a25698f6b5bbca85e080f7fa61e9f190b339cc1b8e151c0a4fb404b1245",
            "0x000000000000000000000000e23fc6c514b414925db74100d90dda1421a99ed9"
          ],
          "data": "0x0000000000000000000000000000000000000000000000000000000000000001",
          "blockHash": "0x7a4f98e96c2ae7bdba6f5e94656f3eb0a28bd74ca5979a3cf0b391010c178d44",
          "blockNumber": "0xabfdc6",
          "blockTimestamp": "0x6a5652d4",
          "transactionHash": "0x79fa42d6392b397b6cd2d7b84ad8dff1e6c4fb8bbd4bbaff78ee2d959f02d6e5",
          "transactionIndex": "0x4a",
          "logIndex": "0x222",
          "removed": false
        }
      ],
      "logsBloom": "0x00100000000000000001000000000000000000000000000000000000000000000000000000000000000040000000000400000000000000000000000000000000000000000000000000000000000000000000000000000000000000000000000000000000000000000000000000000000000000000000000000000000000000000000000000000000000000000000000000000010000000040000000000200000000000000000000000000000000000000000000000000000000000000000000000000000000000000200000000000000000000000000000000000000000000008000000000000000000000000000000000000000000000000000000000000000",
      "type": "0x2",
      "transactionHash": "0x79fa42d6392b397b6cd2d7b84ad8dff1e6c4fb8bbd4bbaff78ee2d959f02d6e5",
      "transactionIndex": "0x4a",
      "blockHash": "0x7a4f98e96c2ae7bdba6f5e94656f3eb0a28bd74ca5979a3cf0b391010c178d44",
      "blockNumber": "0xabfdc6",
      "gasUsed": "0xba87",
      "effectiveGasPrice": "0x3bb155fe",
      "from": "0x6bdf6d887038ab97957c2f57d05edd0eb338589a",
      "to": "0xe8e0e4f795a1a285395f6f8d5ea80adef8c076f1",
      "contractAddress": null
    },
    {
      "status": "0x1",
      "cumulativeGasUsed": "0xc17a67",
      "logs": [
        {
          "address": "0xe8e0e4f795a1a285395f6f8d5ea80adef8c076f1",
          "topics": [
            "0x9a930a25698f6b5bbca85e080f7fa61e9f190b339cc1b8e151c0a4fb404b1245",
            "0x0000000000000000000000004c7071d4d892cb994a3912b9239e44eb992fb4d0"
          ],
          "data": "0x0000000000000000000000000000000000000000000000000000000000000001",
          "blockHash": "0x7a4f98e96c2ae7bdba6f5e94656f3eb0a28bd74ca5979a3cf0b391010c178d44",
          "blockNumber": "0xabfdc6",
          "blockTimestamp": "0x6a5652d4",
          "transactionHash": "0x63942d1b59af93a3986fd4f1350994e43db25a42390079422bdb8a7b224d3e5a",
          "transactionIndex": "0x4b",
          "logIndex": "0x223",
          "removed": false
        }
      ],
      "logsBloom": "0x00000000000000000001000000000000000000000000000000000000000000000000000000000000000040000000000000000000000000000000000000000000000000000000000000000000000000000000000000000000000000000000000000000000000000000000000000000000000000001000000000000000000800000000000000000000000000000000000000000010000000000000000000200000000000000000000000000000000000000000000000000000000000000000000000000004000000000200000000000000000000000000000000000000000000008000000000000000000000000000000000000000000000000000000000000000",
      "type": "0x2",
      "transactionHash": "0x63942d1b59af93a3986fd4f1350994e43db25a42390079422bdb8a7b224d3e5a",
      "transactionIndex": "0x4b",
      "blockHash": "0x7a4f98e96c2ae7bdba6f5e94656f3eb0a28bd74ca5979a3cf0b391010c178d44",
      "blockNumber": "0xabfdc6",
      "gasUsed": "0xba93",
      "effectiveGasPrice": "0x3bb155fe",
      "from": "0x6bdf6d887038ab97957c2f57d05edd0eb338589a",
      "to": "0xe8e0e4f795a1a285395f6f8d5ea80adef8c076f1",
      "contractAddress": null
    },
    {
      "status": "0x1",
      "cumulativeGasUsed": "0xc234fa",
      "logs": [
        {
          "address": "0xe8e0e4f795a1a285395f6f8d5ea80adef8c076f1",
          "topics": [
            "0x9a930a25698f6b5bbca85e080f7fa61e9f190b339cc1b8e151c0a4fb404b1245",
            "0x000000000000000000000000598955f01a137ce6982b3df84e573a5ec7ec40cd"
          ],
          "data": "0x0000000000000000000000000000000000000000000000000000000000000001",
          "blockHash": "0x7a4f98e96c2ae7bdba6f5e94656f3eb0a28bd74ca5979a3cf0b391010c178d44",
          "blockNumber": "0xabfdc6",
          "blockTimestamp": "0x6a5652d4",
          "transactionHash": "0x7579efe75331b93caa532ccec4e1c24f8edd3aa3a4e05573ea231c1283c0d0be",
          "transactionIndex": "0x4c",
          "logIndex": "0x224",
          "removed": false
        }
      ],
      "logsBloom": "0x00000000000000000001000000000000000000000000000000000000000000000000000000000000000040000000000000000000000000000000000000000000000000000000000000000000000000000000000000000000000000000000000000000000100800000000000000000000000000000000000000000000000000000000000000000000000000000000000000000010000000000000000000200000000000000000000000000000000000000000000000000000000000000000000000000000000000000200000000000000000000000000000000000000000000008000000000000000000000000000000000000000000000000000000000000000",
      "type": "0x2",
      "transactionHash": "0x7579efe75331b93caa532ccec4e1c24f8edd3aa3a4e05573ea231c1283c0d0be",
      "transactionIndex": "0x4c",
      "blockHash": "0x7a4f98e96c2ae7bdba6f5e94656f3eb0a28bd74ca5979a3cf0b391010c178d44",
      "blockNumber": "0xabfdc6",
      "gasUsed": "0xba93",
      "effectiveGasPrice": "0x3bb155fe",
      "from": "0x6bdf6d887038ab97957c2f57d05edd0eb338589a",
      "to": "0xe8e0e4f795a1a285395f6f8d5ea80adef8c076f1",
      "contractAddress": null
    },
    {
      "status": "0x1",
      "cumulativeGasUsed": "0xc2ef8d",
      "logs": [
        {
          "address": "0xe8e0e4f795a1a285395f6f8d5ea80adef8c076f1",
          "topics": [
            "0x9a930a25698f6b5bbca85e080f7fa61e9f190b339cc1b8e151c0a4fb404b1245",
            "0x00000000000000000000000016a04788681beeedce19afda5757bee0fbf4ce6e"
          ],
          "data": "0x0000000000000000000000000000000000000000000000000000000000000001",
          "blockHash": "0x7a4f98e96c2ae7bdba6f5e94656f3eb0a28bd74ca5979a3cf0b391010c178d44",
          "blockNumber": "0xabfdc6",
          "blockTimestamp": "0x6a5652d4",
          "transactionHash": "0x992f623bb15b6267eadad9ce2a00e9a9273f53dde073e6298838fbcb4988c6e2",
          "transactionIndex": "0x4d",
          "logIndex": "0x225",
          "removed": false
        }
      ],
      "logsBloom": "0x00000000000000000001000000000000004000000000000000000000000000000000000000000000000040000000000000000000000000000000000000000000000000000000000000000000000000000000000000000000000000000000000000000000000000000000000000000000000000000000000000000000000000000000000000000000000000000000000000000010000000000000000000200000000000000000000000000000000000000000000000000000000000000000000000000000000000000200000000000000000000000020000000000000000000008000000000000000000000000000000000000000000000000000000000000000",
      "type": "0x2",
      "transactionHash": "0x992f623bb15b6267eadad9ce2a00e9a9273f53dde073e6298838fbcb4988c6e2",
      "transactionIndex": "0x4d",
      "blockHash": "0x7a4f98e96c2ae7bdba6f5e94656f3eb0a28bd74ca5979a3cf0b391010c178d44",
      "blockNumber": "0xabfdc6",
      "gasUsed": "0xba93",
      "effectiveGasPrice": "0x3bb155fe",
      "from": "0x6bdf6d887038ab97957c2f57d05edd0eb338589a",
      "to": "0xe8e0e4f795a1a285395f6f8d5ea80adef8c076f1",
      "contractAddress": null
    },
    {
      "status": "0x1",
      "cumulativeGasUsed": "0xc3aa14",
      "logs": [
        {
          "address": "0xe8e0e4f795a1a285395f6f8d5ea80adef8c076f1",
          "topics": [
            "0x9a930a25698f6b5bbca85e080f7fa61e9f190b339cc1b8e151c0a4fb404b1245",
            "0x0000000000000000000000000800dc1015585f8a78b7d386f976c2046ac27846"
          ],
          "data": "0x0000000000000000000000000000000000000000000000000000000000000001",
          "blockHash": "0x7a4f98e96c2ae7bdba6f5e94656f3eb0a28bd74ca5979a3cf0b391010c178d44",
          "blockNumber": "0xabfdc6",
          "blockTimestamp": "0x6a5652d4",
          "transactionHash": "0xa0e4030625d954f8ead4a53a77d195d23783fe17272cbc07e6c9b36e5a278970",
          "transactionIndex": "0x4e",
          "logIndex": "0x226",
          "removed": false
        }
      ],
      "logsBloom": "0x00000000000000000001000000000000000000000000000000000000000000000000000000000000000040000000000000000000000000000000000000008000000000000000000000000000000000000000000000000000000000000000000000000000000000000000000000000000000000000000000000000000000000000000000000000000000000000000000000000010000000000000000000200000000000001000000000000000000000000000000000000000000000000000000000000000000000000200000000000000000000000000000000000000000020008000000000000000000000000000000000000000000000000000000000000000",
      "type": "0x2",
      "transactionHash": "0xa0e4030625d954f8ead4a53a77d195d23783fe17272cbc07e6c9b36e5a278970",
      "transactionIndex": "0x4e",
      "blockHash": "0x7a4f98e96c2ae7bdba6f5e94656f3eb0a28bd74ca5979a3cf0b391010c178d44",
      "blockNumber": "0xabfdc6",
      "gasUsed": "0xba87",
      "effectiveGasPrice": "0x3bb155fe",
      "from": "0x6bdf6d887038ab97957c2f57d05edd0eb338589a",
      "to": "0xe8e0e4f795a1a285395f6f8d5ea80adef8c076f1",
      "contractAddress": null
    },
    {
      "status": "0x1",
      "cumulativeGasUsed": "0x391873f",
      "logs": [
        {
          "address": "0xe8e0e4f795a1a285395f6f8d5ea80adef8c076f1",
          "topics": [
            "0x9a930a25698f6b5bbca85e080f7fa61e9f190b339cc1b8e151c0a4fb404b1245",
            "0x0000000000000000000000002a24d7cf4da1588bf6ce57cf7c9e31dedac40d61"
          ],
          "data": "0x0000000000000000000000000000000000000000000000000000000000000001",
          "blockHash": "0x8b73381a49777f96aaf6eba3d72128c5d13b1abf6261bd77214c529064b57d69",
          "blockNumber": "0xabfdc7",
          "blockTimestamp": "0x6a5652e0",
          "transactionHash": "0x92c3637c9c24411978232822671c74737c097a93efcbd803c107250f55e36efd",
          "transactionIndex": "0x9f",
          "logIndex": "0x396",
          "removed": false
        }
      ],
      "logsBloom": "0x00000000000000000001000000000000000000000000000000000000000000000000000000000000000040000000000000000000000000000000000000000000000000000000000000000000000000000000000000000000000000000000000000000000000000000000000000000000000000000000000000000000000000000000000000000000000000000000000000000010000000000000000000200000000002000000000000000000000000000000000000000000000000000000000000000000000000000200000000000000000000000000000000000000000000008001000000000000000000000000000000000010000000000000000000000000",
      "type": "0x2",
      "transactionHash": "0x92c3637c9c24411978232822671c74737c097a93efcbd803c107250f55e36efd",
      "transactionIndex": "0x9f",
      "blockHash": "0x8b73381a49777f96aaf6eba3d72128c5d13b1abf6261bd77214c529064b57d69",
      "blockNumber": "0xabfdc7",
      "gasUsed": "0xba93",
      "effectiveGasPrice": "0x37dd89fd",
      "from": "0x6bdf6d887038ab97957c2f57d05edd0eb338589a",
      "to": "0xe8e0e4f795a1a285395f6f8d5ea80adef8c076f1",
      "contractAddress": null
    },
    {
      "status": "0x1",
      "cumulativeGasUsed": "0x39241d2",
      "logs": [
        {
          "address": "0xe8e0e4f795a1a285395f6f8d5ea80adef8c076f1",
          "topics": [
            "0x9a930a25698f6b5bbca85e080f7fa61e9f190b339cc1b8e151c0a4fb404b1245",
            "0x0000000000000000000000001fa2bf7f5bfa6ef235773beda019a63719b5c583"
          ],
          "data": "0x0000000000000000000000000000000000000000000000000000000000000001",
          "blockHash": "0x8b73381a49777f96aaf6eba3d72128c5d13b1abf6261bd77214c529064b57d69",
          "blockNumber": "0xabfdc7",
          "blockTimestamp": "0x6a5652e0",
          "transactionHash": "0xde22f606bc002a9ce3fbff4ff7c1f6bb38bb9c6ddcf69d09b769eb95ff5197d7",
          "transactionIndex": "0xa0",
          "logIndex": "0x397",
          "removed": false
        }
      ],
      "logsBloom": "0x00000000000000000001000000000000000000000000000000000000000000000000000000000000000040000000000000000000000000000000000000000000000000000000000000000000000000200000000000000000000000000000000000000000000000200000000000000000000000000000000000000000000000000000000000000000000000000000000000000010000000000000000000200000000000000000000000000000000000000000000000000000000000000000000000000000000000000200000000040000000000000000000000000000000000008000000000000000000000000000000000000000000000000000000000000000",
      "type": "0x2",
      "transactionHash": "0xde22f606bc002a9ce3fbff4ff7c1f6bb38bb9c6ddcf69d09b769eb95ff5197d7",
      "transactionIndex": "0xa0",
      "blockHash": "0x8b73381a49777f96aaf6eba3d72128c5d13b1abf6261bd77214c529064b57d69",
      "blockNumber": "0xabfdc7",
      "gasUsed": "0xba93",
      "effectiveGasPrice": "0x37dd89fd",
      "from": "0x6bdf6d887038ab97957c2f57d05edd0eb338589a",
      "to": "0xe8e0e4f795a1a285395f6f8d5ea80adef8c076f1",
      "contractAddress": null
    }
  ],
  "libraries": [],
  "pending": [],
  "returns": {},
  "timestamp": 1784042422042,
  "chain": 11155111,
  "commit": "d95ae4b84"
}